{
  "transactions": [
    {
      "hash": "0x1cc22180e8eea3082b494c7712c0c8262d099f8a7a8f653990934cefda6bd6ad",
      "transactionType": "CALL",
      "contractName": "RWAAssetRegistry",
      "contractAddress": "0xf0d10e2f38c032f5da27bf2896dea72e943393de",
      "function": "verifyKYC(address)",
      "arguments": [
        "0xAe6c3bB71723B43aeF175997c480c26BC5439643"
      ],
      "transaction": {
        "from": "0xe5d7e81226e2ca1355f8954673ece59fe40fdbfd",
        "to": "0xf0d10e2f38c032f5da27bf2896dea72e943393de",
        "gas": "0x100a3",
        "value": "0x0",
        "input": "0x38d16011000000000000000000000000ae6c3bb71723b43aef175997c480c26bc5439643",
        "nonce": "0xab",
        "chainId": "0xaa36a7"
      },
      "additionalContracts": [],
      "isFixedGasLimit": false
    },
    {
      "hash": "0x53dbf48c959d59f479a59fd767ee43173bd99281fe50ec58ee8636501dbe9b71",
      "transactionType": "CALL",
      "contractName": "RWAAssetRegistry",
      "contractAddress": "0xf0d10e2f38c032f5da27bf2896dea72e943393de",
      "function": "whitelistRecipient(address)",
      "arguments": [
        "0xAe6c3bB71723B43aeF175997c480c26BC5439643"
      ],
      "transaction": {
        "from": "0xe5d7e81226e2ca1355f8954673ece59fe40fdbfd",
        "to": "0xf0d10e2f38c032f5da27bf2896dea72e943393de",
        "gas": "0x10ef8",
        "value": "0x0",
        "input": "0xf78fe978000000000000000000000000ae6c3bb71723b43aef175997c480c26bc5439643",
        "nonce": "0xac",
        "chainId": "0xaa36a7"
      },
      "additionalContracts": [],
      "isFixedGasLimit": false
    }
  ],
  "receipts": [
    {
      "status": "0x1",
      "cumulativeGasUsed": "0x1513542",
      "logs": [
        {
          "address": "0xf0d10e2f38c032f5da27bf2896dea72e943393de",
          "topics": [
            "0x65c84ee842eafc291d1272a6e3d10f8c454c4288e63f5db3f7be2b3012f321a9",
            "0x000000000000000000000000ae6c3bb71723b43aef175997c480c26bc5439643"
          ],
          "data": "0x",
          "blockHash": "0x9c9a006cc65325445cccd70ccf711eadf4720783e59907fd19ed9c3ca1287fde",
          "blockNumber": "0x9dc300",
          "blockTimestamp": "0x699ff2f4",
          "transactionHash": "0x53dbf48c959d59f479a59fd767ee43173bd99281fe50ec58ee8636501dbe9b71",
          "transactionIndex": "0x79",
          "logIndex": "0x16b",
          "removed": false
        }
      ],
      "logsBloom": "0x00000000800000000000000000000000000000000000000000000000000000000000000000000000000000000000000000000000000000000000000000000000000000000000000000000800000000000000000000000000000000000000000000000000000000000000000000002000000000000000000000000020000000000000000000000000000000000000000000000000000000000000000000000000000000400000000000000000000000000000000000000000000000000000000000000000000000000000000000000000000000000000004000000000000004000000000000000000001000000000000000000000008000000000000000000000",
      "type": "0x2",
      "transactionHash": "0x53dbf48c959d59f479a59fd767ee43173bd99281fe50ec58ee8636501dbe9b71",
      "transactionIndex": "0x79",
      "blockHash": "0x9c9a006cc65325445cccd70ccf711eadf4720783e59907fd19ed9c3ca1287fde",
      "blockNumber": "0x9dc300",
      "gasUsed": "0xb9ce",
      "effectiveGasPrice": "0xf5474",
      "from": "0xe5d7e81226e2ca1355f8954673ece59fe40fdbfd",
      "to": "0xf0d10e2f38c032f5da27bf2896dea72e943393de",
      "contractAddress": null
    },
    {
      "status": "0x1",
      "cumulativeGasUsed": "0x151f970",
      "logs": [
        {
          "address": "0xf0d10e2f38c032f5da27bf2896dea72e943393de",
          "topics": [
            "0x633dd34c2a254e3303a95404f346347f8e94d94b507ffb6d2db4b9ea051dc1e8",
            "0x000000000000000000000000ae6c3bb71723b43aef175997c480c26bc5439643"
          ],
          "data": "0x",
          "blockHash": "0x9c9a006cc65325445cccd70ccf711eadf4720783e59907fd19ed9c3ca1287fde",
          "blockNumber": "0x9dc300",
          "blockTimestamp": "0x699ff2f4",
          "transactionHash": "0x1cc22180e8eea3082b494c7712c0c8262d099f8a7a8f653990934cefda6bd6ad",
          "transactionIndex": "0x7a",
          "logIndex": "0x16c",
          "removed": false
        }
      ],
      "logsBloom": "0x00000000000000000000000000000000000000000000000000000000000000000000000000000000000000000000000000000000000000000000000000000000000000000000000000000800000000000000000000000000000000000000000000000000000000000000000000002000000000000000000000000020000000000000000000000000000000000000000010000000000000000000000000080000000000400000000000000000000020000000000000000000000000000000000000000000000000000000000000000000000000000000004000000000000004000000000000000000000000000000000000000000000000000000000000000000",
      "type": "0x2",
      "transactionHash": "0x1cc22180e8eea3082b494c7712c0c8262d099f8a7a8f653990934cefda6bd6ad",
      "transactionIndex": "0x7a",
      "blockHash": "0x9c9a006cc65325445cccd70ccf711eadf4720783e59907fd19ed9c3ca1287fde",
      "blockNumber": "0x9dc300",
      "gasUsed": "0xc42e",
      "effectiveGasPrice": "0xf5474",
      "from": "0xe5d7e81226e2ca1355f8954673ece59fe40fdbfd",
      "to": "0xf0d10e2f38c032f5da27bf2896dea72e943393de",
      "contractAddress": null
    }
  ],
  "libraries": [],
  "pending": [],
  "returns": {},
  "timestamp": 1772090100583,
  "chain": 11155111,
  "commit": "2593d4a"
}