{
  "transactions": [
    {
      "hash": "0x02797aa13c4d16b2bf658f6783f4535a5a53ad922549d13c992f39978cbae279",
      "transactionType": "CALL",
      "contractName": "RWAAssetRegistry",
      "contractAddress": "0x165fb8bcda88b586e378c556ef582f095794858e",
      "function": "whitelistRecipient(address)",
      "arguments": [
        "0xE5d7e81226E2Ca1355F8954673eCe59Fe40fDBFd"
      ],
      "transaction": {
        "from": "0xe5d7e81226e2ca1355f8954673ece59fe40fdbfd",
        "to": "0x165fb8bcda88b586e378c556ef582f095794858e",
        "gas": "0x10ef8",
        "value": "0x0",
        "input": "0xf78fe978000000000000000000000000e5d7e81226e2ca1355f8954673ece59fe40fdbfd",
        "nonce": "0x63",
        "chainId": "0xaa36a7"
      },
      "additionalContracts": [],
      "isFixedGasLimit": false
    },
    {
      "hash": "0xb2f3275d814b9573a9e1292b6c457662277ca18cd312109650b3e6534ab6c9ce",
      "transactionType": "CALL",
      "contractName": "RWAAssetRegistry",
      "contractAddress": "0x165fb8bcda88b586e378c556ef582f095794858e",
      "function": "registerAsset(uint8,address,uint256,string)",
      "arguments": [
        "0",
        "0xE5d7e81226E2Ca1355F8954673eCe59Fe40fDBFd",
        "500000000000000000000000",
        "1411 NW 47th Ter, Gainesville, FL 32605"
      ],
      "transaction": {
        "from": "0xe5d7e81226e2ca1355f8954673ece59fe40fdbfd",
        "to": "0x165fb8bcda88b586e378c556ef582f095794858e",
        "gas": "0x5e571",
        "value": "0x0",
        "input": "0xffddd9cd0000000000000000000000000000000000000000000000000000000000000000000000000000000000000000e5d7e81226e2ca1355f8954673ece59fe40fdbfd0000000000000000000000000000000000000000000069e10de76676d08000000000000000000000000000000000000000000000000000000000000000000080000000000000000000000000000000000000000000000000000000000000002731343131204e572034377468205465722c204761696e657376696c6c652c20464c20333236303500000000000000000000000000000000000000000000000000",
        "nonce": "0x64",
        "chainId": "0xaa36a7"
      },
      "additionalContracts": [],
      "isFixedGasLimit": false
    },
    {
      "hash": "0xea00c1ed4840919f78f7b210c30c29103057d24f6cc405e97adc438b738ff4dc",
      "transactionType": "CREATE",
      "contractName": "RentalCashFlowLogic",
      "contractAddress": "0x6f551ed64a4ddc10260a30707bb287ad3d6588a2",
      "function": null,
      "arguments": null,
      "transaction": {
        "from": "0xe5d7e81226e2ca1355f8954673ece59fe40fdbfd",
        "gas": "0x131517",
        "value": "0x0",
        "input": "0x608080604052346100165761106a908161001b8239f35b5f80fdfe6080604081815260049182361015610015575f80fd5b5f92833560e01c9182630592a61214610cfc5750816307c47e6414610cdd578163158ef93e14610cb95781631cc1cf4614610c9a5781631ebf1a5514610c5057816326d3325d14610ae857816326fadbe214610a9a57816338f417ca14610a6d5781633c6a7f9b14610a4f578163439fab911461071657816345615716146106f65781634e7c13fe1461069f5781637633a22c1461062c5781637b103999146106725781637e8b06c1146106535781638acdca5e1461062c5781638c2281b014610471578163b42b2da514610452578163be03250b14610433578163d2fa0a08146103f9578163df9d58ff146101d357508063e2957dd1146101b5578063e6fd48bc14610197578063e8c300ee1461017d578063f41cb5d11461015f5763f8ef1e1314610140575f80fd5b3461015b578160031936011261015b57602091549051908152f35b5080fd5b503461015b578160031936011261015b576020906009549051908152f35b503461015b578160031936011261015b5751908152602090f35b503461015b578160031936011261015b576020906007549051908152f35b503461015b578160031936011261015b57602090600a549051908152f35b9050346103f557816003193601126103f557803560249384359061021160ff600c5461020b60018060a01b038260081c163314610e04565b16610e40565b60ff6005541660058110156103e3576003146103ad57600354821161037b57805483106103425761024182610f4a565b8082526020966006885260ff878420541661030b575091818388969487969452600686527fa62c35dfc0ff11d3713608ebcdc5c5d1952c7702620f2c46c22950f7b70d57978880842060ff1990600182825416179055836008556102a787600954610d6d565b60095560055416958660055581519081528589820152a286519081525f80516020611015833981519152958691a160035411156102f7575b82856102f56102ec610d7a565b91518092610d18565bf35b81176005558351908152a15f8281806102df565b8560136064928a8a519362461bcd60e51b85528401528201527214195c9a5bd908185b1c9958591e481c185a59606a1b6044820152fd5b845162461bcd60e51b815260208186015260148188015273125b9cdd59999a58da595b9d081c185e5b595b9d60621b6044820152606490fd5b845162461bcd60e51b8152602081860152600d818801526c1319585cd948195e1c1a5c9959609a1b6044820152606490fd5b845162461bcd60e51b815260208186015260118188015270105b1c9958591e48191959985d5b1d1959607a1b6044820152606490fd5b634e487b7160e01b8252602185528682fd5b8280fd5b919050346103f55760203660031901126103f557816020915f805160206110158339815191529360ff19600554161760055551908152a180f35b50503461015b578160031936011261015b576020906008549051908152f35b50503461015b578160031936011261015b576020906003549051908152f35b90508234610603576020366003190112610603578135916104a060018060a01b03600c5460081c163314610e04565b8351631ebf1a5560e01b815281810184905291608083602481305afa9182156106205781948294839461059e575b506005549360ff851694600587101561058b5760ff191660ff871617600555839160028714801561057e575b610567575b505061055457600583101561055457505090806102f59203610532575b61052884518094610d18565b6020830190610d39565b5f805160206110158339815191526020855161054e8185610d39565ba161051c565b634e487b7160e01b825260219052602490fd5b6105719082610f82565b600a55600b5587806104ff565b50849250600387146104fa565b634e487b7160e01b855260218452602485fd5b95509250925060803d8111610619575b601f8101601f1916850167ffffffffffffffff81118682101761060657608091869188528101031261060357835192600984101561015b5760208501519460058610156103f5576060015193949392876104ce565b80fd5b634e487b7160e01b835260418552602483fd5b503d6105ae565b508451903d90823e3d90fd5b50503461015b578160031936011261015b576020906102f560ff6005541691518092610d39565b50503461015b578160031936011261015b576020906002549051908152f35b50503461015b578160031936011261015b57600c54905160089190911c6001600160a01b03168152602090f35b50503461015b578160031936011261015b576020906106cc60018060a01b03600c5460081c163314610e04565b600360ff1960055416176005555f8051602061101583398151915282825160038152a15160018152f35b50503461015b578160031936011261015b576020906102f56102ec610d7a565b919050346103f557602080600319360112610a0b5782359167ffffffffffffffff808411610a4b5736602385011215610a4b5783850135908111610a4b5783019060243681840111610a4757600c549260ff8416610a0f579060e086899594930312610a0b578594859485948386013599866044808201359660e460c460a460846064809701359d01359d01359d01359d01359560018060a01b039081881688036106035760038e905560028d905560018a90558f905560089690961b610100600160a81b0316958e156109dd578d156109ab578d80601c0290601c82040361099857891061096457610100600160a81b03198616871760081c1615610933578c6005028d60058204036109215761082e908b610d6d565b42116108e357898c11156108a55750505060078790558990556005805460ff191690556001600160a81b03191617600117600c5582519788528701528501526060840152608083015260a08201527ff9942075be21ecf4573e3db2ac4f77f2d4f78f089a1b02b79062dcede6b956279060c090a180f35b8391601a7f4c6561736520656e64206265666f72652066697273742064756500000000000092898c519562461bcd60e51b8752860152840152820152fd5b8391601e7f466972737420647565206461746520746f6f2066617220696e2070617374000092898c519562461bcd60e51b8752860152840152820152fd5b50634e487b7160e01b8f52601184528efd5b839160106f496e76616c696420726567697374727960801b92898c519562461bcd60e51b8752860152840152820152fd5b508391601271125b9d195c9d985b081d1bdbc81cda1bdc9d60721b92898c519562461bcd60e51b8752860152840152820152fd5b5050634e487b7160e01b8f52601184528efd5b50839160106f125b9d985b1a59081d1a5b59555b9a5d60821b92898c519562461bcd60e51b8752860152840152820152fd5b508391600c6b125b9d985b1a59081c995b9d60a21b92898c519562461bcd60e51b8752860152840152820152fd5b8380fd5b825162461bcd60e51b815280880186905260138184015272105b1c9958591e481a5b9a5d1a585b1a5e9959606a1b6044820152606490fd5b8680fd5b8580fd5b9050346103f557826003193601126103f55760209250549051908152f35b9050346103f55760203660031901126103f5578160209360ff923581526006855220541690519015158152f35b50503461015b578160031936011261015b5790606091610ad2610abc42610f4a565b610acc6007549160015490610d46565b90610d6d565b9154906003549181519384526020840152820152f35b83833461015b57602036600319011261015b57826101009335908360e08451610b1081610da8565b82815282602082015282868201528260608201528260808201528260a08201528260c08201520152610b4182610f4a565b93610b54600754610acc60015488610d46565b948152600660205260ff8482205416928194841594858096610c47575b610c2a575b835497610b90610b8a600254975488610d46565b82610d6d565b9115610c22578089945b10159687610c1a575b50825195610bb087610da8565b89875260208701918252838701928352606087019485526080870195865260e060a08801978a895260c081019915158a520198118852825198895251602089015251908701525160608601525160808501525160a084015251151560c083015251151560e0820152f35b96508a610ba3565b808594610b9a565b9550610c41610c398884610dd9565b855490610de6565b95610b76565b50878311610b71565b90508234610603576020366003190112610603576080610c9084610c748535610e7e565b9391610c868396929496518097610d18565b6020860190610d39565b8301526060820152f35b50503461015b578160031936011261015b576020906001549051908152f35b50503461015b578160031936011261015b5760209060ff600c541690519015158152f35b50503461015b578160031936011261015b57602090600b549051908152f35b84903461015b578160031936011261015b576020906009548152f35b906009821015610d255752565b634e487b7160e01b5f52602160045260245ffd5b906005821015610d255752565b81810292918115918404141715610d5957565b634e487b7160e01b5f52601160045260245ffd5b91908201809211610d5957565b60ff600554166005811015610d255760038114610da257600414610d9d57600290565b600890565b50600490565b610100810190811067ffffffffffffffff821117610dc557604052565b634e487b7160e01b5f52604160045260245ffd5b91908203918211610d5957565b8115610df0570490565b634e487b7160e01b5f52601260045260245ffd5b15610e0b57565b60405162461bcd60e51b815260206004820152600d60248201526c4f6e6c7920726567697374727960981b6044820152606490fd5b15610e4757565b60405162461bcd60e51b815260206004820152600f60248201526e139bdd081a5b9a5d1a585b1a5e9959608a1b6044820152606490fd5b610e8c60ff600c5416610e40565b600354811015610f3757610e9f81610f4a565b610eb1600754610acc60015484610d46565b5f828152600660205260ff604082205416610f2c5781841115610f245750610edc610ee59184610dd9565b60045490610de6565b915b826002548110610f175750610efe60029183610f82565b1015610f0d5760029283929190565b6004926003929190565b9250506002926001929190565b905091610ee7565b925050600292829190565b610f4090610f4a565b6008916004915f91565b60075490818110610f6e57610f6b91610f6291610dd9565b60015490610de6565b90565b50505f90565b5f198114610d595760010190565b6002546007546001545f95948692909190835b86811115610fa65750505050505050565b808552600660205260ff604086205416610fea5785610fce610fc88584610d46565b84610d6d565b8086111561100d57610edc610fe39187610dd9565b1015610ff8575b610ff390610f74565b610f95565b97611005610ff391610f74565b989050610fea565b5085610fe356fe784218e19c0007f03f5c1f12e90bda7d4631acfbd176a7d385530c4b1f494b47a264697066735822122088dd918b7919cf75a8b110e25137db91a36f386b7d2a768dba4080f7b31f23a264736f6c63430008140033",
        "nonce": "0x65",
        "chainId": "0xaa36a7"
      },
      "additionalContracts": [],
      "isFixedGasLimit": false
    },
    {
      "hash": "0x22150cb9dcd203bf0662e2b1e18efd675c8fbe6a67c73aaeb3f7f7efbd037aac",
      "transactionType": "CALL",
      "contractName": "RentalCashFlowLogic",
      "contractAddress": "0x6f551ed64a4ddc10260a30707bb287ad3d6588a2",
      "function": "initialize(bytes)",
      "arguments": [
        "0x0000000000000000000000000000000000000000000000878678326eac9000000000000000000000000000000000000000000000000000000000000000278d0000000000000000000000000000000000000000000000000000000000699c2ad80000000000000000000000000000000000000000000000000000000000000005000000000000000000000000000000000000000000000000000000006b7d5e580000000000000000000000000000000000000000000000000000000000015180000000000000000000000000165fb8bcda88b586e378c556ef582f095794858e"
      ],
      "transaction": {
        "from": "0xe5d7e81226e2ca1355f8954673ece59fe40fdbfd",
        "to": "0x6f551ed64a4ddc10260a30707bb287ad3d6588a2",
        "gas": "0x4168f",
        "value": "0x0",
        "input": "0x439fab91000000000000000000000000000000000000000000000000000000000000002000000000000000000000000000000000000000000000000000000000000000e00000000000000000000000000000000000000000000000878678326eac9000000000000000000000000000000000000000000000000000000000000000278d0000000000000000000000000000000000000000000000000000000000699c2ad80000000000000000000000000000000000000000000000000000000000000005000000000000000000000000000000000000000000000000000000006b7d5e580000000000000000000000000000000000000000000000000000000000015180000000000000000000000000165fb8bcda88b586e378c556ef582f095794858e",
        "nonce": "0x66",
        "chainId": "0xaa36a7"
      },
      "additionalContracts": [],
      "isFixedGasLimit": false
    },
    {
      "hash": "0xe592d7a38d0528b38712abc827b77cc82fbf9db5d5506f6b697349f61ed32dca",
      "transactionType": "CREATE",
      "contractName": "RWARevenueVault",
      "contractAddress": "0x5232b415ed0659df82d8de436292d36d780e5a53",
      "function": null,
      "arguments": null,
      "transaction": {
        "from": "0xe5d7e81226e2ca1355f8954673ece59fe40fdbfd",
        "gas": "0x227065",
        "value": "0x0",
        "input": "0x6080604052346100535760017f9b779b17422d0df92223018b32b4d1fa46e071723d6817e2486d003becc55f00555f60095560fa600e555f600f5561004333610057565b50604051611d0790816100e78239f35b5f80fd5b6001600160a01b03165f8181527fad3228b676f7d3cd4284a5443f17f1962b36e491b30a40b2405849e597ba5fb5602052604081205490919060ff166100e257818052816020526040822081835260205260408220600160ff1982541617905533917f2f8788117e7eff1d82e926ec794901d17c78024a50270940304540a733656f0d8180a4600190565b509056fe6080604081815260049182361015610015575f80fd5b5f92833560e01c91826301ffc9a71461165357508163022b557b146114b55781630df4dc6f14610a0557816312065fe01461141d57816321755088146113f6578163248a9ca3146113cc57816326a40c99146113945781632f2ff15d1461136a5781633013ce291461134157816331d7a2621461130957816335659fb8146112ea57816336568abe146112a4578163406cf22914610f8057816344de240a14610f615781634690484014610f38578163476343ee14610e2057838263528c198a14610d7157508163580b7c2e14610d365781635873eb9b14610cfe578163587f5ed714610cdf5781635f68f67714610adf578163651d95e514610a5c5781636ef6109214610a2457816372cec03414610a055781637b103999146109dd578163855bde3e1461089757816391d14854146108545781639aa7df9414610835578163a217fddf1461081a578163cc0e97c9146107f1578163d547741f146107b6578163e1391782146104de578163eabcca101461025c57508063f5fc50761461023e578063f752494214610220578063fc0c546a146101f85763fc3b624e146101bb575f80fd5b346101f457816003193601126101f457602090517fe2f2c6ec490c385a19982d62c2eab738afebfd5de935a92469733daed358fe588152f35b5080fd5b50346101f457816003193601126101f45760035490516001600160a01b039091168152602090f35b50346101f457816003193601126101f4576020906007549051908152f35b50346101f457816003193601126101f4576020906009549051908152f35b919050346104da5760e03660031901126104da576102786116a6565b906102816116bc565b926001600160a01b0391604480358481169391908490036104d6576064948535958187168097036104d657608435928284168094036104d65760c435958387168097036104d6576006549360ff851661049e57808b161561046c578b161561043b57871561040a5788156103d157841561039d578615610365578b6103618c6103518d8d8d8d8d8d60018e60ff1916176006556bffffffffffffffffffffffff60a01b938460025416176002558382541617905560a43560055581601054161760105560015416176001556117a5565b5061035b81611821565b506118bf565b5080f35b5162461bcd60e51b81526020818701526014602482015273125b9d985b1a5908199959549958da5c1a595b9d60621b91810191909152fd5b5162461bcd60e51b8152602081870152601060248201526f496e76616c696420726567697374727960801b91810191909152fd5b5162461bcd60e51b8152602081870152601560248201527424b73b30b634b2103830bcb6b2b73a103a37b5b2b760591b91810191909152fd5b5162461bcd60e51b8152602081870152600d60248201526c496e76616c6964206c6f67696360981b91810191909152fd5b5162461bcd60e51b8152602081870152600d60248201526c125b9d985b1a59081859d95b9d609a1b91810191909152fd5b505162461bcd60e51b8152602081870152600d60248201526c24b73b30b634b21030b236b4b760991b91810191909152fd5b505162461bcd60e51b81526020818701526013602482015272105b1c9958591e481a5b9a5d1a585b1a5e9959606a1b91810191909152fd5b5f80fd5b8280fd5b8383346101f457602090816003193601126104da57839081356104ff611729565b610507611adc565b600254825163137d6df160e11b8152936001600160a01b0392916060918691829086165afa9384156107ac578694610773575b506007549361054b82861015611b0b565b81036107305781875416856005546024865180948193631174806160e11b83528d8301525afa9081156107265786926105918a95936105bf938b916106f9575b50611b57565b6105b96127106105a3600e5484611b96565b046105b081600f54611abb565b600f5582611ba9565b96611ba9565b6007556105ce85600854611abb565b600855600354168351978880926318160ddd60e01b82525afa9586156106ef5785966106c0575b508515908115610615575b8560015f80516020611cb28339815191525580f35b60065460ff8160081c16156106ae575b50670de0b6b3a76400009182850292858404148515171561069b5761068857507f69074786425c52f0a5747ada3a45a8aeff05c00e5fcd4b1c87a2a70f432218c194956106759104600954611abb565b60095551908152a1808280808080610600565b601290634e487b7160e01b5f525260245ffd5b634e487b7160e01b875260118252602487fd5b61ff0019166101001760065587610625565b9095508381813d83116106e8575b6106d88183611a2f565b810103126104d6575194866105f5565b503d6106ce565b82513d87823e3d90fd5b6107199150863d881161071f575b6107118183611a2f565b810190611a65565b8c61058b565b503d610707565b84513d89823e3d90fd5b825162461bcd60e51b8152808801869052601960248201527f4578706563746564207061796d656e74206d69736d61746368000000000000006044820152606490fd5b9093506060813d82116107a4575b8161078e60609383611a2f565b810103126107a057840151928761053a565b8580fd5b3d9150610781565b83513d88823e3d90fd5b919050346104da57806003193601126104da5761036191356107ec60016107db6116bc565b938387528660205286200154611784565b6119bc565b5050346101f457816003193601126101f45760025490516001600160a01b039091168152602090f35b5050346101f457816003193601126101f45751908152602090f35b5050346101f457816003193601126101f4576020906007549051908152f35b9050346104da57816003193601126104da57816020936108726116bc565b92358152808552209060018060a01b03165f52825260ff815f20541690519015158152f35b919050346104da57806003193601126104da576108b26116a6565b602435906108be611729565b6108c6611adc565b811561099a5760015483516323b872dd60e01b81526001600160a01b039283169581019590955230602486015260448501839052602091859160649183918991165af1928315610990577ff213ae9678e29ddf71cfd6bb58204207ac2f5a37f62a198ca6bc86737f01586893610943918691610972575b50611a7d565b61094f81600754611abb565b6007558151908152426020820152a160015f80516020611cb28339815191525580f35b61098a915060203d811161071f576107118183611a2f565b5f61093d565b82513d86823e3d90fd5b825162461bcd60e51b8152602081860152601760248201527f416d6f756e74206d75737420626520706f7369746976650000000000000000006044820152606490fd5b9050346104da57826003193601126104da575490516001600160a01b03909116815260209150f35b5050346101f457816003193601126101f4576020906008549051908152f35b5050346101f45760203660031901126101f45760209181906001600160a01b03610a4c6116a6565b168152600d845220549051908152f35b9050346104da5760203660031901126104da57610a776116a6565b610a7f6116d2565b6001600160a01b0316918215610aac5750506bffffffffffffffffffffffff60a01b600354161760035580f35b906020606492519162461bcd60e51b8352820152600d60248201526c24b73b30b634b2103a37b5b2b760991b6044820152fd5b919050346104da57806003193601126104da57610afa6116a6565b91610b036116bc565b610b0b611adc565b6003546001600160a01b03919082163303610caf578185168015159586610ca0575b5081831695861515928380610c96575b610c87575b50610bf2575b50610b63575b8460015f80516020611cb28339815191525580f35b60035483516370a0823160e01b815292830185905260209183916024918391165afa908115610990578491610bbf575b50610baa670de0b6b3a76400009160095490611b96565b04918352600a6020528220555f808080610b4e565b90506020813d8211610bea575b81610bd960209383611a2f565b810103126104d65751610baa610b93565b3d9150610bcc565b6024602084600354168751928380926370a0823160e01b8252868a8301525afa908115610c7d578891610c4a575b50610c37670de0b6b3a76400009160095490611b96565b04908752600a602052848720555f610b48565b90506020813d8211610c75575b81610c6460209383611a2f565b810103126104d65751610c37610c20565b3d9150610c57565b86513d8a823e3d90fd5b610c9090611bb6565b5f610b42565b5082881415610b3d565b610ca990611bb6565b5f610b2d565b835162461bcd60e51b8152602081850152600a60248201526927b7363c903a37b5b2b760b11b6044820152606490fd5b5050346101f457816003193601126101f457602090600f549051908152f35b5050346101f45760203660031901126101f45760209181906001600160a01b03610d266116a6565b168152600a845220549051908152f35b5050346101f457816003193601126101f457602090517f1893e1a169e79f2fe8aa327b1bceb2fede7a1b76a54824f95ea0e737720954ae8152f35b92915034610e1c5781600319360112610e1c57610d8c6116a6565b610d946116d2565b6003546001600160a01b031690813b15610e185783516340c10f1960e01b81526001600160a01b039091168382019081526024356020820152909491859182908490829060400103925af1801561099057610ded578380f35b67ffffffffffffffff8311610e055750525f80808380f35b634e487b7160e01b845260419052602483fd5b8480fd5b5050fd5b9050346104da57826003193601126104da57610e3a611adc565b610e426116d2565b600f54908115610f0b57600f849055600154601054845163a9059cbb60e01b81526001600160a01b039182169381019384526020848101869052909390928492169082908890829060400103925af1908115610efe5792610ece602093927fc472cb3a7a659a876494d66b3063145f279701771d6150b9329c31611ed6405c958791610ee75750611a7d565b51908152a160015f80516020611cb28339815191525580f35b61098a9150853d811161071f576107118183611a2f565b50505051903d90823e3d90fd5b606490602084519162461bcd60e51b835282015260076024820152664e6f206665657360c81b6044820152fd5b5050346101f457816003193601126101f45760105490516001600160a01b039091168152602090f35b5050346101f457816003193601126101f4576020906005549051908152f35b8383346101f457816003193601126101f457610f9a611adc565b82546005548251631174806160e11b815280860191909152602492916020916001600160a01b039182169083818781855afa90811561129a5791610fe7859288948a9161127d5750611b57565b8551633af32abf60e01b8152338a82015292839182905afa908115611222578691611260575b501561122c5761101c33611bb6565b838282600354168551928380926370a0823160e01b8252338c8301525afa9081156112225786916111f3575b5061105f670de0b6b3a76400009160095490611b96565b04338652600a835283862055600b8252828520549384156111bd57600854851161117c57508361110095968392338952600b845288868120556110a483600854611ba9565b600855338952600d84528589206110bc848254611abb565b9055338952600c845242868a2055600154169088865180998195829463a9059cbb60e01b84523390840160209093929193604081019460018060a01b031681520152565b03925af19384156106ef577f10d8dedfc0745b8c25ba10b06e304138b251c18dcaadf2d71c7f3214719dc4d1939461113e91879161115f5750611a7d565b815193845242908401523392a260015f80516020611cb28339815191525580f35b6111769150833d851161071f576107118183611a2f565b8761093d565b86601a6064928587519362461bcd60e51b85528401528201527f496e73756666696369656e742064697374726962757461626c650000000000006044820152fd5b8660126064928587519362461bcd60e51b8552840152820152714e6f2070656e64696e67207265776172647360701b6044820152fd5b90508281813d831161121b575b61120a8183611a2f565b810103126107a0575161105f611048565b503d611200565b84513d88823e3d90fd5b825162461bcd60e51b8152808701839052600f818601526e139bdd081dda1a5d195b1a5cdd1959608a1b6044820152606490fd5b6112779150833d851161071f576107118183611a2f565b8761100d565b6112949150843d861161071f576107118183611a2f565b8b61058b565b85513d89823e3d90fd5b8383346101f457806003193601126101f4576112be6116bc565b90336001600160a01b038316036112db57506103619192356119bc565b5163334bd91960e11b81528390fd5b5050346101f457816003193601126101f457602090600e549051908152f35b5050346101f45760203660031901126101f45760209181906001600160a01b036113316116a6565b168152600b845220549051908152f35b5050346101f457816003193601126101f45760015490516001600160a01b039091168152602090f35b919050346104da57806003193601126104da57610361913561138f60016107db6116bc565b611958565b5050346101f45760203660031901126101f45760209181906001600160a01b036113bc6116a6565b168152600c845220549051908152f35b9050346104da5760203660031901126104da57816020936001923581528085522001549051908152f35b5050346101f457816003193601126101f45760209060ff60065460081c1690519015158152f35b919050346104da57826003193601126104da5760015481516370a0823160e01b81523093810193909352602090839060249082906001600160a01b03165afa9182156114ab578392611474575b6020838351908152f35b9091506020813d82116114a3575b8161148f60209383611a2f565b810103126104da576020925051905f61146a565b3d9150611482565b81513d85823e3d90fd5b9050346104da57816003193601126104da5767ffffffffffffffff8135818111610e185736602382011215610e185780830135918211610e18573660248383010111610e1857602435937f1893e1a169e79f2fe8aa327b1bceb2fede7a1b76a54824f95ea0e737720954ae93848752602094878652828820338952865260ff8389205416156116385750611547611adc565b6007549061155782881115611b0b565b80546005548451631174806160e11b8152928301528690829060249082906001600160a01b03165afa9088821561162d579580946115d18a83966115cc6024977fec2715248f93daa810498c051f7f418783deff1e5184eba4ccf20d57789fdbb79e9b978e60609e92611610575b5050611b57565b611ba9565b600755808051998a98895288015286015201848401378181018301869052601f01601f19168101030190a160015f80516020611cb28339815191525580f35b6116269250803d1061071f576107118183611a2f565b5f8e6115c5565b8451903d90823e3d90fd5b604492519163e2517d3f60e01b835233908301526024820152fd5b8491346104da5760203660031901126104da573563ffffffff60e01b81168091036104da5760209250637965db0b60e01b8114908115611695575b5015158152f35b6301ffc9a760e01b1490508361168e565b600435906001600160a01b03821682036104d657565b602435906001600160a01b03821682036104d657565b335f9081527fad3228b676f7d3cd4284a5443f17f1962b36e491b30a40b2405849e597ba5fb5602052604081205460ff161561170b5750565b6044906040519063e2517d3f60e01b82523360048301526024820152fd5b335f9081527f1f0c3aa234c717819ca003165ea9e795021a753e97c75b32bb79cc90cbbf5cfa60205260409020547fe2f2c6ec490c385a19982d62c2eab738afebfd5de935a92469733daed358fe589060ff161561170b5750565b805f525f60205260405f20335f5260205260ff60405f2054161561170b5750565b6001600160a01b03165f8181527fad3228b676f7d3cd4284a5443f17f1962b36e491b30a40b2405849e597ba5fb5602052604081205490919060ff1661181d57818052816020526040822081835260205260408220600160ff1982541617905533915f80516020611c928339815191528180a4600190565b5090565b6001600160a01b03165f8181527f1f0c3aa234c717819ca003165ea9e795021a753e97c75b32bb79cc90cbbf5cfa60205260408120549091907fe2f2c6ec490c385a19982d62c2eab738afebfd5de935a92469733daed358fe589060ff166118ba57808352826020526040832082845260205260408320600160ff198254161790555f80516020611c92833981519152339380a4600190565b505090565b6001600160a01b03165f8181527ff7a24d9db6a7a77b0ca72c680cb6234311400aad48c64d3d9b11dafd3cc5e8a860205260408120549091907f1893e1a169e79f2fe8aa327b1bceb2fede7a1b76a54824f95ea0e737720954ae9060ff166118ba57808352826020526040832082845260205260408320600160ff198254161790555f80516020611c92833981519152339380a4600190565b905f9180835282602052604083209160018060a01b03169182845260205260ff604084205416155f146118ba57808352826020526040832082845260205260408320600160ff198254161790555f80516020611c92833981519152339380a4600190565b905f9180835282602052604083209160018060a01b03169182845260205260ff6040842054165f146118ba5780835282602052604083208284526020526040832060ff1981541690557ff6391f5c32d9c69d2a47ea670b442974b53935d1edc7fd64eb21e047a839171b339380a4600190565b90601f8019910116810190811067ffffffffffffffff821117611a5157604052565b634e487b7160e01b5f52604160045260245ffd5b908160209103126104d6575180151581036104d65790565b15611a8457565b60405162461bcd60e51b815260206004820152600f60248201526e151c985b9cd9995c8819985a5b1959608a1b6044820152606490fd5b91908201809211611ac857565b634e487b7160e01b5f52601160045260245ffd5b5f80516020611cb28339815191526002815414611af95760029055565b604051633ee5aeb560e01b8152600490fd5b15611b1257565b60405162461bcd60e51b815260206004820152601760248201527f496e73756666696369656e742069646c652066756e64730000000000000000006044820152606490fd5b15611b5e57565b60405162461bcd60e51b815260206004820152601060248201526f4173736574206e6f742061637469766560801b6044820152606490fd5b81810292918115918404141715611ac857565b91908203918211611ac857565b6003546040516370a0823160e01b81526001600160a01b039283166004820181905292602092839183916024918391165afa908115611c86575f91611c54575b50611c0d670de0b6b3a76400009160095490611b96565b0490825f52600a815260405f205491828111611c2a575b50505050565b600b92611c3691611ba9565b925f5252611c4960405f20918254611abb565b90555f808080611c24565b908282813d8311611c7f575b611c6a8183611a2f565b81010312611c7c575051611c0d611bf6565b80fd5b503d611c60565b6040513d5f823e3d90fdfe2f8788117e7eff1d82e926ec794901d17c78024a50270940304540a733656f0d9b779b17422d0df92223018b32b4d1fa46e071723d6817e2486d003becc55f00a2646970667358221220718e5fd04c448068d7db318c11203bad5d5026763f3dbdc4c252e17e5c7f776a64736f6c63430008140033",
        "nonce": "0x67",
        "chainId": "0xaa36a7"
      },
      "additionalContracts": [],
      "isFixedGasLimit": false
    },
    {
      "hash": "0xe2020788b449d4f9c6d0db61af2d43a28b43d57363f896d3ecb3a04cd6aff525",
      "transactionType": "CALL",
      "contractName": "RWARevenueVault",
      "contractAddress": "0x5232b415ed0659df82d8de436292d36d780e5a53",
      "function": "initialize(address,address,address,address,address,uint256,address)",
      "arguments": [
        "0xE5d7e81226E2Ca1355F8954673eCe59Fe40fDBFd",
        "0xE5d7e81226E2Ca1355F8954673eCe59Fe40fDBFd",
        "0x6f551ED64a4DDc10260a30707bb287AD3d6588A2",
        "0x8D1EF34e06957A5b0F17e0C30bC79bef273F939f",
        "0x165fB8BCDa88b586E378C556EF582f095794858E",
        "2",
        "0xE5d7e81226E2Ca1355F8954673eCe59Fe40fDBFd"
      ],
      "transaction": {
        "from": "0xe5d7e81226e2ca1355f8954673ece59fe40fdbfd",
        "to": "0x5232b415ed0659df82d8de436292d36d780e5a53",
        "gas": "0x4a79f",
        "value": "0x0",
        "input": "0xeabcca10000000000000000000000000e5d7e81226e2ca1355f8954673ece59fe40fdbfd000000000000000000000000e5d7e81226e2ca1355f8954673ece59fe40fdbfd0000000000000000000000006f551ed64a4ddc10260a30707bb287ad3d6588a20000000000000000000000008d1ef34e06957a5b0f17e0c30bc79bef273f939f000000000000000000000000165fb8bcda88b586e378c556ef582f095794858e0000000000000000000000000000000000000000000000000000000000000002000000000000000000000000e5d7e81226e2ca1355f8954673ece59fe40fdbfd",
        "nonce": "0x68",
        "chainId": "0xaa36a7"
      },
      "additionalContracts": [],
      "isFixedGasLimit": false
    },
    {
      "hash": "0x231e2577773320cdcae5379cb6af0ed83a362b0aa11215a1ea2e7c79344083fc",
      "transactionType": "CREATE",
      "contractName": "InvestorShareToken",
      "contractAddress": "0x4c411c1d1b1563ea02505c8ba5234f925bee2d32",
      "function": null,
      "arguments": [
        "2",
        "CreditWeave Property Share",
        "CWRWA",
        "115792089237316195423570985008687907853269984665640564039457584007913129639935",
        "0x165fB8BCDa88b586E378C556EF582f095794858E",
        "0x5232B415ED0659Df82d8DE436292D36d780E5a53",
        "0xE5d7e81226E2Ca1355F8954673eCe59Fe40fDBFd"
      ],
      "transaction": {
        "from": "0xe5d7e81226e2ca1355f8954673ece59fe40fdbfd",
        "gas": "0x194a0e",
        "value": "0x0",
        "input": "0x6040610100815234620004f95762001aca803803806200001f81620004fd565b928339810160e082820312620004f95781516020808401516001600160401b0393919290848111620004f957826200005991870162000523565b918686015190858211620004f9576200007491870162000523565b606086015193620000886080880162000593565b93620000a560c06200009d60a08b0162000593565b990162000593565b96815181811162000404576003908154906001948583811c93168015620004ee575b87841014620004da578190601f9384811162000487575b50879084831160011462000424575f9262000418575b50505f1982851b1c191690851b1782555b8551928311620004045760049586548581811c91168015620003f9575b87821014620003e6578281116200039e575b508591841160011462000337579383949184925f956200032b575b50501b925f19911b1c19161782555b8215620002f7578415620002b5576001600160a01b03848116156200027f57808716156200024c578716156200021a5787620001b688620001af8989898960805260a0528360c05260e052620005a8565b5062000627565b50516113e19081620006c982396080518181816106780152610f63015260a0518181816105fa0152818161073e0152610f40015260c05181818161013d015281816102bf015281816106d701526110a8015260e0518181816101cf01526107880152f35b875162461bcd60e51b815291820152600d60248201526c125b9d985b1a59081d985d5b1d609a1b604482015260649150fd5b885162461bcd60e51b8152808401839052600d60248201526c24b73b30b634b21030b236b4b760991b6044820152606490fd5b885162461bcd60e51b8152808401839052601060248201526f496e76616c696420726567697374727960801b6044820152606490fd5b875162461bcd60e51b815291820152601660248201527f4d617820737570706c79206d757374206265203e203000000000000000000000604482015260649150fd5b875162461bcd60e51b815291820152600f60248201526e125b9d985b1a5908185cdcd95d1259608a1b604482015260649150fd5b015193505f806200014f565b9190601f19841692875f5284875f20945f5b89898383106200038657505050106200036c575b50505050811b0182556200015e565b01519060f8845f19921b161c191690555f8080806200035d565b86860151895590970196948501948893500162000349565b875f52865f208380870160051c820192898810620003dc575b0160051c019086905b828110620003d057505062000134565b5f8155018690620003c0565b92508192620003b7565b602288634e487b7160e01b5f525260245ffd5b90607f169062000122565b634e487b7160e01b5f52604160045260245ffd5b015190505f80620000f4565b90879350601f19831691865f52895f20925f5b8b82821062000470575050841162000458575b505050811b01825562000105565b01515f1983871b60f8161c191690555f80806200044a565b8385015186558b9790950194938401930162000437565b909150845f52875f208480850160051c8201928a8610620004d0575b918991869594930160051c01915b828110620004c1575050620000de565b5f8155859450899101620004b1565b92508192620004a3565b634e487b7160e01b5f52602260045260245ffd5b92607f1692620000c7565b5f80fd5b6040519190601f01601f191682016001600160401b038111838210176200040457604052565b919080601f84011215620004f95782516001600160401b038111620004045760209062000559601f8201601f19168301620004fd565b92818452828287010111620004f9575f5b8181106200057f5750825f9394955001015290565b85810183015184820184015282016200056a565b51906001600160a01b0382168203620004f957565b6001600160a01b03165f8181527f05b8ccbb9d4d8fb16ea74ce3c29a41f1b461fbdaff4714a0d9a8eb05499746bc602052604081205490919060ff16620006235781805260056020526040822081835260205260408220600160ff1982541617905533915f8051602062001aaa8339815191528180a4600190565b5090565b6001600160a01b03165f8181527f87c2ee2c36dfdcfbf8c67c09d653b243ec5dd6151f83e87090208d36e7af7e3560205260408120549091907f31e0210044b4f6757ce6aa31f9c6e8d4896d24a755014887391a926c5224d9599060ff16620006c35780835260056020526040832082845260205260408320600160ff198254161790555f8051602062001aaa833981519152339380a4600190565b50509056fe6080604081815260049182361015610015575f80fd5b5f92833560e01c91826301ffc9a714610c7d5750816306fdde0314610b88578163095ea7b314610ade57816318160ddd14610abf57816319d4872914610a9257816323b872dd1461099c578163248a9ca3146109715781632f2ff15d14610947578163313ce5671461092b57816336568abe146108e557816340c10f191461069b57816344de240a1461066057816370a08231146106295781637b103999146105e557816391d148541461059e57816395d89b411461049b57816398c4f1ac146104605781639dc29fac14610282578163a217fddf14610267578163a9059cbb14610236578163d547741f146101f257508063d5abeb01146101b8578063dd62ed3e146101705763fbfa77cf1461012a575f80fd5b3461016c578160031936011261016c57517f00000000000000000000000000000000000000000000000000000000000000006001600160a01b03168152602090f35b5080fd5b503461016c578060031936011261016c578060209261018d610d17565b610195610d31565b6001600160a01b0391821683526001865283832091168252845220549051908152f35b503461016c578160031936011261016c57602090517f00000000000000000000000000000000000000000000000000000000000000008152f35b9190503461023257806003193601126102325761022e91356102296001610217610d31565b93838752600560205286200154610dc0565b610e60565b5080f35b8280fd5b50503461016c578060031936011261016c57602090610260610256610d17565b6024359033610f1f565b5160018152f35b50503461016c578160031936011261016c5751908152602090f35b9190503461023257806003193601126102325761029d610d17565b906024356102a9610d47565b815163042eaa1160e31b81526001600160a01b037f000000000000000000000000000000000000000000000000000000000000000081169560209492909190858184818b5afa9081156104565790610309918a91610429575b50156112c7565b85169485156104135785885287855282882054908482106103df5750908388928784528387520383832055836002540360025581867fddf252ad1be2c89b69c2b068fc378daa952ba7f163c4a11628f55a4df523b3ef878651888152a3863b1561016c5760448691838551998a948593635f68f67760e01b85528401528160248401525af19485156103d5577f1af5163f80e79b5e554f61e1d052084d3a3fe1166e42a265798c4e2ddce8ffa294956103c6575b5051908152a280f35b6103cf90610ed5565b5f6103bd565b81513d88823e3d90fd5b925163391434e360e21b81526001600160a01b03909316918301918252602082015260408101929092529081906060010390fd5b50866024925191634b637e8f60e11b8352820152fd5b6104499150873d891161044f575b6104418183610efd565b8101906112af565b5f610302565b503d610437565b84513d8b823e3d90fd5b50503461016c578160031936011261016c57602090517f31e0210044b4f6757ce6aa31f9c6e8d4896d24a755014887391a926c5224d9598152f35b83833461016c578160031936011261016c57805191809380549160019083821c92828516948515610594575b60209586861081146105815785895290811561055d5750600114610505575b61050187876104f7828c0383610efd565b5191829182610cd0565b0390f35b81529295507f8a35acfbc15ff81a39ae7d344fd709f28e8600b4aa8c65c6b64bfe7fe36bd19b5b82841061054a5750505082610501946104f7928201019486806104e6565b805486850188015292860192810161052c565b60ff19168887015250505050151560051b83010192506104f78261050186806104e6565b634e487b7160e01b845260228352602484fd5b93607f16936104c7565b9050346102325781600319360112610232578160209360ff926105bf610d31565b90358252600586528282206001600160a01b039091168252855220549151911615158152f35b50503461016c578160031936011261016c57517f00000000000000000000000000000000000000000000000000000000000000006001600160a01b03168152602090f35b50503461016c57602036600319011261016c5760209181906001600160a01b03610651610d17565b16815280845220549051908152f35b50503461016c578160031936011261016c57602090517f00000000000000000000000000000000000000000000000000000000000000008152f35b919050346102325780600319360112610232576106b6610d17565b6024356106c1610d47565b825163042eaa1160e31b81526001600160a01b037f000000000000000000000000000000000000000000000000000000000000000081169590946020949092858184818b5afa9081156104565791610723879289948c916108ce5750156112c7565b6024855180948193633af32abf60e01b835216998a878301527f0000000000000000000000000000000000000000000000000000000000000000165afa9081156108c457906107799189916108a7575b50611303565b600254610786848261134f565b7f00000000000000000000000000000000000000000000000000000000000000001061086f57851561085957906107be84899361134f565b60025585825281855282822084815401905585827fddf252ad1be2c89b69c2b068fc378daa952ba7f163c4a11628f55a4df523b3ef878651888152a3863b1561016c5760448291828551998a948593635f68f67760e01b85528401528960248401525af19485156103d5577fb9144c96c86541f6fa89c9f2f02495cccf4b08cd6643e26d34ee00aa586558a894956103c6575051908152a280f35b5086602492519163ec442f0560e01b8352820152fd5b5083606492519162461bcd60e51b8352820152601360248201527213585e081cdd5c1c1b1e48195e18d959591959606a1b6044820152fd5b6108be9150863d881161044f576104418183610efd565b5f610773565b83513d8a823e3d90fd5b6104499150843d861161044f576104418183610efd565b83833461016c578060031936011261016c576108ff610d31565b90336001600160a01b0383160361091c575061022e919235610e60565b5163334bd91960e11b81528390fd5b50503461016c578160031936011261016c576020905160128152f35b9190503461023257806003193601126102325761022e913561096c6001610217610d31565b610de2565b9050346102325760203660031901126102325781602093600192358152600585522001549051908152f35b90508234610a8f576060366003190112610a8f576109b8610d17565b6109c0610d31565b916044359360018060a01b038316808352600160205286832033845260205286832054915f1983106109fb575b602088610260898989610f1f565b868310610a63578115610a4c573315610a3557508252600160209081528683203384528152918690209085900390558290610260876109ed565b8751634a1406b160e11b8152908101849052602490fd5b875163e602df0560e01b8152908101849052602490fd5b8751637dc7a0d960e11b8152339181019182526020820193909352604081018790528291506060010390fd5b80fd5b50503461016c57602036600319011261016c57602090610ab8610ab3610d17565b611370565b9051908152f35b50503461016c578160031936011261016c576020906002549051908152f35b905034610232578160031936011261023257610af8610d17565b602435903315610b71576001600160a01b0316918215610b5a57508083602095338152600187528181208582528752205582519081527f8c5be1e5ebec7d5bd14f71427d1e84f3dd0314c0f7b2291e5b200ac8c7c3b925843392a35160018152f35b8351634a1406b160e11b8152908101859052602490fd5b835163e602df0560e01b8152808401869052602490fd5b91905034610232578260031936011261023257805191836003549060019082821c928281168015610c73575b6020958686108214610c605750848852908115610c3e5750600114610be5575b61050186866104f7828b0383610efd565b929550600383527fc2575a0e9e593c00f959f8c92f12db2869c3395a3b0502d05e2516446f71f85b5b828410610c2b5750505082610501946104f792820101945f610bd4565b8054868501880152928601928101610c0e565b60ff191687860152505050151560051b83010192506104f7826105015f610bd4565b634e487b7160e01b845260229052602483fd5b93607f1693610bb4565b849134610232576020366003190112610232573563ffffffff60e01b81168091036102325760209250637965db0b60e01b8114908115610cbf575b5015158152f35b6301ffc9a760e01b14905083610cb8565b602080825282518183018190529093925f5b828110610d0357505060409293505f838284010152601f8019910116010190565b818101860151848201604001528501610ce2565b600435906001600160a01b0382168203610d2d57565b5f80fd5b602435906001600160a01b0382168203610d2d57565b335f9081527f87c2ee2c36dfdcfbf8c67c09d653b243ec5dd6151f83e87090208d36e7af7e3560205260409020547f31e0210044b4f6757ce6aa31f9c6e8d4896d24a755014887391a926c5224d9599060ff1615610da25750565b6044906040519063e2517d3f60e01b82523360048301526024820152fd5b805f52600560205260405f20335f5260205260ff60405f20541615610da25750565b905f918083526005602052604083209160018060a01b03169182845260205260ff604084205416155f14610e5b5780835260056020526040832082845260205260408320600160ff198254161790557f2f8788117e7eff1d82e926ec794901d17c78024a50270940304540a733656f0d339380a4600190565b505090565b905f918083526005602052604083209160018060a01b03169182845260205260ff6040842054165f14610e5b578083526005602052604083208284526020526040832060ff1981541690557ff6391f5c32d9c69d2a47ea670b442974b53935d1edc7fd64eb21e047a839171b339380a4600190565b67ffffffffffffffff8111610ee957604052565b634e487b7160e01b5f52604160045260245ffd5b90601f8019910116810190811067ffffffffffffffff821117610ee957604052565b91906001600160a01b039081841690811561129757821691821561127f57807f000000000000000000000000000000000000000000000000000000000000000016907f0000000000000000000000000000000000000000000000000000000000000000604095865197631174806160e11b895260049483868b015260209360249a85818d81865afa9081156111cb575f91611262575b501561122d57895190631f50b2cb60e01b82528782015284818c81855afa908115611223575f91611206575b506111d5578851633af32abf60e01b8082528782018990529085818d81865afa9081156111cb575f916111ae575b50156111735784908b8b518094819382528c8b8301525afa908115611169579061103f915f916111525750611303565b855f525f8352875f20549082821061111e575086928287937fddf252ad1be2c89b69c2b068fc378daa952ba7f163c4a11628f55a4df523b3ef93855f525f8452038a5f2055845f52895f208181540190558951908152a38383036110a6575b505050505050565b7f00000000000000000000000000000000000000000000000000000000000000001690813b15610d2d575f604492819587519889968795635f68f67760e01b87528601528401525af19081156111155750611106575b808080808061109e565b61110f90610ed5565b5f6110fc565b513d5f823e3d90fd5b885163391434e360e21b81526001600160a01b03909116818701908152602081018390526040810184905281906060010390fd5b6108be9150853d871161044f576104418183610efd565b89513d5f823e3d90fd5b895162461bcd60e51b81528088018690526016818d01527514d95b99195c881b9bdd081dda1a5d195b1a5cdd195960521b6044820152606490fd5b6111c59150863d881161044f576104418183610efd565b5f61100f565b8b513d5f823e3d90fd5b885162461bcd60e51b8152808701859052600c818c01526b105cdcd95d081c185d5cd95960a21b6044820152606490fd5b61121d9150853d871161044f576104418183610efd565b5f610fe1565b8a513d5f823e3d90fd5b895162461bcd60e51b81528088018690526010818d01526f4173736574206e6f742061637469766560801b6044820152606490fd5b6112799150863d881161044f576104418183610efd565b5f610fb5565b60405163ec442f0560e01b81525f6004820152602490fd5b604051634b637e8f60e11b81525f6004820152602490fd5b90816020910312610d2d57518015158103610d2d5790565b156112ce57565b60405162461bcd60e51b815260206004820152600d60248201526c14dd5c1c1b1e481b1bd8dad959609a1b6044820152606490fd5b1561130a57565b60405162461bcd60e51b815260206004820152601960248201527f526563697069656e74206e6f742077686974656c6973746564000000000000006044820152606490fd5b9190820180921161135c57565b634e487b7160e01b5f52601160045260245ffd5b6002549081156113a55760018060a01b03165f525f60205260405f20546127109081810291818304149015171561135c570490565b50505f9056fea2646970667358221220c8e259f03b0cdbbf3d41817bcab40fce0afe4ad2d8ff4aa90ce44c85c4f3a62f64736f6c634300081400332f8788117e7eff1d82e926ec794901d17c78024a50270940304540a733656f0d000000000000000000000000000000000000000000000000000000000000000200000000000000000000000000000000000000000000000000000000000000e00000000000000000000000000000000000000000000000000000000000000120ffffffffffffffffffffffffffffffffffffffffffffffffffffffffffffffff000000000000000000000000165fb8bcda88b586e378c556ef582f095794858e0000000000000000000000005232b415ed0659df82d8de436292d36d780e5a53000000000000000000000000e5d7e81226e2ca1355f8954673ece59fe40fdbfd000000000000000000000000000000000000000000000000000000000000001a43726564697457656176652050726f706572747920536861726500000000000000000000000000000000000000000000000000000000000000000000000000054357525741000000000000000000000000000000000000000000000000000000",
        "nonce": "0x69",
        "chainId": "0xaa36a7"
      },
      "additionalContracts": [],
      "isFixedGasLimit": false
    },
    {
      "hash": "0x5eb54bc1436a0cd84d4f1c78b102d477d60d3686bbec4adf759b83efe267075d",
      "transactionType": "CALL",
      "contractName": "RWARevenueVault",
      "contractAddress": "0x5232b415ed0659df82d8de436292d36d780e5a53",
      "function": "setTokenContracts(address)",
      "arguments": [
        "0x4C411C1d1b1563Ea02505c8BA5234F925BEE2d32"
      ],
      "transaction": {
        "from": "0xe5d7e81226e2ca1355f8954673ece59fe40fdbfd",
        "to": "0x5232b415ed0659df82d8de436292d36d780e5a53",
        "gas": "0xfaee",
        "value": "0x0",
        "input": "0x651d95e50000000000000000000000004c411c1d1b1563ea02505c8ba5234f925bee2d32",
        "nonce": "0x6a",
        "chainId": "0xaa36a7"
      },
      "additionalContracts": [],
      "isFixedGasLimit": false
    },
    {
      "hash": "0xa17900c865e1c3096d65f3c34b940e04602021abdab04cb4043848dc6d6a324f",
      "transactionType": "CALL",
      "contractName": "RWAAssetRegistry",
      "contractAddress": "0x165fb8bcda88b586e378c556ef582f095794858e",
      "function": "linkContracts(uint256,address,address,address)",
      "arguments": [
        "2",
        "0x6f551ED64a4DDc10260a30707bb287AD3d6588A2",
        "0x5232B415ED0659Df82d8DE436292D36d780E5a53",
        "0x4C411C1d1b1563Ea02505c8BA5234F925BEE2d32"
      ],
      "transaction": {
        "from": "0xe5d7e81226e2ca1355f8954673ece59fe40fdbfd",
        "to": "0x165fb8bcda88b586e378c556ef582f095794858e",
        "gas": "0x24f5c",
        "value": "0x0",
        "input": "0x51b204ed00000000000000000000000000000000000000000000000000000000000000020000000000000000000000006f551ed64a4ddc10260a30707bb287ad3d6588a20000000000000000000000005232b415ed0659df82d8de436292d36d780e5a530000000000000000000000004c411c1d1b1563ea02505c8ba5234f925bee2d32",
        "nonce": "0x6b",
        "chainId": "0xaa36a7"
      },
      "additionalContracts": [],
      "isFixedGasLimit": false
    },
    {
      "hash": "0x63cb2bc0f4a6c97ac1b65792d3345ff24d5216c5d8f8eeb1b27bf8f8b4f746ab",
      "transactionType": "CALL",
      "contractName": "RWAAssetRegistry",
      "contractAddress": "0x165fb8bcda88b586e378c556ef582f095794858e",
      "function": "activateAsset(uint256)",
      "arguments": [
        "2"
      ],
      "transaction": {
        "from": "0xe5d7e81226e2ca1355f8954673ece59fe40fdbfd",
        "to": "0x165fb8bcda88b586e378c556ef582f095794858e",
        "gas": "0x14d2b",
        "value": "0x0",
        "input": "0xffba205f0000000000000000000000000000000000000000000000000000000000000002",
        "nonce": "0x6c",
        "chainId": "0xaa36a7"
      },
      "additionalContracts": [],
      "isFixedGasLimit": false
    },
    {
      "hash": "0x4cbadd6b380741be98f5f258c3b183919b56a3996bb26c51b423c0b4605ad065",
      "transactionType": "CALL",
      "contractName": null,
      "contractAddress": "0x77b0347f171cd8782506bd6d35ea7601ec11561c",
      "function": "setAssetToken(uint256,address)",
      "arguments": [
        "2",
        "0x4C411C1d1b1563Ea02505c8BA5234F925BEE2d32"
      ],
      "transaction": {
        "from": "0xe5d7e81226e2ca1355f8954673ece59fe40fdbfd",
        "to": "0x77b0347f171cd8782506bd6d35ea7601ec11561c",
        "gas": "0x110a2",
        "value": "0x0",
        "input": "0x28b523e300000000000000000000000000000000000000000000000000000000000000020000000000000000000000004c411c1d1b1563ea02505c8ba5234f925bee2d32",
        "nonce": "0x6d",
        "chainId": "0xaa36a7"
      },
      "additionalContracts": [],
      "isFixedGasLimit": false
    },
    {
      "hash": "0x236224959bc1023376223f8e46de310cdeef8b7385a066e77851bf518e7f7b2e",
      "transactionType": "CALL",
      "contractName": null,
      "contractAddress": "0x77b0347f171cd8782506bd6d35ea7601ec11561c",
      "function": "setAssetLogic(uint256,address)",
      "arguments": [
        "2",
        "0x6f551ED64a4DDc10260a30707bb287AD3d6588A2"
      ],
      "transaction": {
        "from": "0xe5d7e81226e2ca1355f8954673ece59fe40fdbfd",
        "to": "0x77b0347f171cd8782506bd6d35ea7601ec11561c",
        "gas": "0x102e2",
        "value": "0x0",
        "input": "0x96fdc77100000000000000000000000000000000000000000000000000000000000000020000000000000000000000006f551ed64a4ddc10260a30707bb287ad3d6588a2",
        "nonce": "0x6e",
        "chainId": "0xaa36a7"
      },
      "additionalContracts": [],
      "isFixedGasLimit": false
    },
    {
      "hash": "0x233c7c0e0165d9260ec1032833fa7c7b1aa5050fe8d38b6cea28f4406a7ee09f",
      "transactionType": "CALL",
      "contractName": "RWARevenueVault",
      "contractAddress": "0x5232b415ed0659df82d8de436292d36d780e5a53",
      "function": "mintShares(address,uint256)",
      "arguments": [
        "0xE5d7e81226E2Ca1355F8954673eCe59Fe40fDBFd",
        "500000000000000000000000"
      ],
      "transaction": {
        "from": "0xe5d7e81226e2ca1355f8954673ece59fe40fdbfd",
        "to": "0x5232b415ed0659df82d8de436292d36d780e5a53",
        "gas": "0x219bc",
        "value": "0x0",
        "input": "0x528c198a000000000000000000000000e5d7e81226e2ca1355f8954673ece59fe40fdbfd0000000000000000000000000000000000000000000069e10de76676d0800000",
        "nonce": "0x6f",
        "chainId": "0xaa36a7"
      },
      "additionalContracts": [],
      "isFixedGasLimit": false
    }
  ],
  "receipts": [
    {
      "status": "0x1",
      "cumulativeGasUsed": "0x167b34e",
      "logs": [
        {
          "address": "0x165fb8bcda88b586e378c556ef582f095794858e",
          "topics": [
            "0x633dd34c2a254e3303a95404f346347f8e94d94b507ffb6d2db4b9ea051dc1e8",
            "0x000000000000000000000000e5d7e81226e2ca1355f8954673ece59fe40fdbfd"
          ],
          "data": "0x",
          "blockHash": "0x08212f72266410f462d0dee5f61ebbddb8f5592505f83cd0788fbc9e3961cb0b",
          "blockNumber": "0x9d776b",
          "blockTimestamp": "0x699c2afc",
          "transactionHash": "0x02797aa13c4d16b2bf658f6783f4535a5a53ad922549d13c992f39978cbae279",
          "transactionIndex": "0x5d",
          "logIndex": "0xde",
          "removed": false
        }
      ],
      "logsBloom": "0x00000000000000000000000000000000000000000000000000000000000000000000000000000000000000000000000000000000000000000000000000000000000000000800000000000000000000000000000000000000000000000000000000000000000000000000000000000000000000000000000000000000001000000000000000000000000800000000000010000000000000000000400000080000000000000000000000000000000020000000000000000000000000000000000000200000000000000000000000000000000000000000000000000000000000000000000000000000000000000000000000000000000000000000000000000040",
      "type": "0x2",
      "transactionHash": "0x02797aa13c4d16b2bf658f6783f4535a5a53ad922549d13c992f39978cbae279",
      "transactionIndex": "0x5d",
      "blockHash": "0x08212f72266410f462d0dee5f61ebbddb8f5592505f83cd0788fbc9e3961cb0b",
      "blockNumber": "0x9d776b",
      "gasUsed": "0xc42e",
      "effectiveGasPrice": "0xf4261",
      "from": "0xe5d7e81226e2ca1355f8954673ece59fe40fdbfd",
      "to": "0x165fb8bcda88b586e378c556ef582f095794858e",
      "contractAddress": null
    },
    {
      "status": "0x1",
      "cumulativeGasUsed": "0x16bbb67",
      "logs": [
        {
          "address": "0x165fb8bcda88b586e378c556ef582f095794858e",
          "topics": [
            "0xdad99ad75033a16b370048f551c6da57e13c63c93a73343a1bfa85736cb9ee67",
            "0x0000000000000000000000000000000000000000000000000000000000000002",
            "0x000000000000000000000000e5d7e81226e2ca1355f8954673ece59fe40fdbfd"
          ],
          "data": "0x00000000000000000000000000000000000000000000000000000000000000000000000000000000000000000000000000000000000069e10de76676d0800000",
          "blockHash": "0x08212f72266410f462d0dee5f61ebbddb8f5592505f83cd0788fbc9e3961cb0b",
          "blockNumber": "0x9d776b",
          "blockTimestamp": "0x699c2afc",
          "transactionHash": "0x22150cb9dcd203bf0662e2b1e18efd675c8fbe6a67c73aaeb3f7f7efbd037aac",
          "transactionIndex": "0x5e",
          "logIndex": "0xdf",
          "removed": false
        }
      ],
      "logsBloom": "0x04000000000000000000000000000000000000000000000000000000000000000000000000000000000000000000000000000000000000000000000010000000000000000800000000000000000000000000000000000000000000000000000000000000000000000000000000000000000000000000000000000000001000000000000000000000000800000000000000000000000000000000400000000000000000000000000000000101000000000000000000000000000000000000000000200000800000000000000000000000000000000000000000000000000000000000000000000000000000000000000000000000008000000000000000000040",
      "type": "0x2",
      "transactionHash": "0x22150cb9dcd203bf0662e2b1e18efd675c8fbe6a67c73aaeb3f7f7efbd037aac",
      "transactionIndex": "0x5e",
      "blockHash": "0x08212f72266410f462d0dee5f61ebbddb8f5592505f83cd0788fbc9e3961cb0b",
      "blockNumber": "0x9d776b",
      "gasUsed": "0x40819",
      "effectiveGasPrice": "0xf4261",
      "from": "0xe5d7e81226e2ca1355f8954673ece59fe40fdbfd",
      "to": "0x165fb8bcda88b586e378c556ef582f095794858e",
      "contractAddress": null
    },
    {
      "status": "0x1",
      "cumulativeGasUsed": "0x17a692a",
      "logs": [],
      "logsBloom": "0x00000000000000000000000000000000000000000000000000000000000000000000000000000000000000000000000000000000000000000000000000000000000000000000000000000000000000000000000000000000000000000000000000000000000000000000000000000000000000000000000000000000000000000000000000000000000000000000000000000000000000000000000000000000000000000000000000000000000000000000000000000000000000000000000000000000000000000000000000000000000000000000000000000000000000000000000000000000000000000000000000000000000000000000000000000000",
      "type": "0x2",
      "transactionHash": "0xea00c1ed4840919f78f7b210c30c29103057d24f6cc405e97adc438b738ff4dc",
      "transactionIndex": "0x5f",
      "blockHash": "0x08212f72266410f462d0dee5f61ebbddb8f5592505f83cd0788fbc9e3961cb0b",
      "blockNumber": "0x9d776b",
      "gasUsed": "0xeadc3",
      "effectiveGasPrice": "0xf4261",
      "from": "0xe5d7e81226e2ca1355f8954673ece59fe40fdbfd",
      "to": null,
      "contractAddress": "0x6f551ed64a4ddc10260a30707bb287ad3d6588a2"
    },
    {
      "status": "0x1",
      "cumulativeGasUsed": "0x17d34c3",
      "logs": [
        {
          "address": "0x6f551ed64a4ddc10260a30707bb287ad3d6588a2",
          "topics": [
            "0xf9942075be21ecf4573e3db2ac4f77f2d4f78f089a1b02b79062dcede6b95627"
          ],
          "data": "0x0000000000000000000000000000000000000000000000878678326eac9000000000000000000000000000000000000000000000000000000000000000278d0000000000000000000000000000000000000000000000000000000000699c2ad80000000000000000000000000000000000000000000000000000000000000005000000000000000000000000000000000000000000000000000000006b7d5e580000000000000000000000000000000000000000000000000000000000015180",
          "blockHash": "0x08212f72266410f462d0dee5f61ebbddb8f5592505f83cd0788fbc9e3961cb0b",
          "blockNumber": "0x9d776b",
          "blockTimestamp": "0x699c2afc",
          "transactionHash": "0xb2f3275d814b9573a9e1292b6c457662277ca18cd312109650b3e6534ab6c9ce",
          "transactionIndex": "0x60",
          "logIndex": "0xe0",
          "removed": false
        }
      ],
      "logsBloom": "0x00000000000000000000000000000000000000000000000000000000000000000000008000020000000000000000000000000000000000000000000000000000000000000000000000000000000000000000000000000000000000000000000000000000000000000000000000000000000000000000000000000000000000000000000000000000000000000000000000000000000000400000000000000000000000000080000000000000000000000000000000000000000000000000000000000000000000000000000000000000000000000000000000000000020000000000000000000000000000000000000000000000000000080000000000000000",
      "type": "0x2",
      "transactionHash": "0xb2f3275d814b9573a9e1292b6c457662277ca18cd312109650b3e6534ab6c9ce",
      "transactionIndex": "0x60",
      "blockHash": "0x08212f72266410f462d0dee5f61ebbddb8f5592505f83cd0788fbc9e3961cb0b",
      "blockNumber": "0x9d776b",
      "gasUsed": "0x2cb99",
      "effectiveGasPrice": "0xf4261",
      "from": "0xe5d7e81226e2ca1355f8954673ece59fe40fdbfd",
      "to": "0x6f551ed64a4ddc10260a30707bb287ad3d6588a2",
      "contractAddress": null
    },
    {
      "status": "0x1",
      "cumulativeGasUsed": "0x197b29b",
      "logs": [
        {
          "address": "0x5232b415ed0659df82d8de436292d36d780e5a53",
          "topics": [
            "0x2f8788117e7eff1d82e926ec794901d17c78024a50270940304540a733656f0d",
            "0x0000000000000000000000000000000000000000000000000000000000000000",
            "0x000000000000000000000000e5d7e81226e2ca1355f8954673ece59fe40fdbfd",
            "0x000000000000000000000000e5d7e81226e2ca1355f8954673ece59fe40fdbfd"
          ],
          "data": "0x",
          "blockHash": "0x08212f72266410f462d0dee5f61ebbddb8f5592505f83cd0788fbc9e3961cb0b",
          "blockNumber": "0x9d776b",
          "blockTimestamp": "0x699c2afc",
          "transactionHash": "0xa17900c865e1c3096d65f3c34b940e04602021abdab04cb4043848dc6d6a324f",
          "transactionIndex": "0x61",
          "logIndex": "0xe1",
          "removed": false
        }
      ],
      "logsBloom": "0x00000004000000000000000000000000000000000000000000000000000000000000000000000000000000000000000000000000000000000000000000000000000000400000000000000000000000000000000000000000000000000000000000000000020000000000000000000800000000000000000000000000001000000000000000000000000800000000000000000000000000000000000000000000000000000000000000000000004000000800000000000000001000000000000000200000000000000000000000000000000000000000000100000000000020000000000000000000000000000000000000000000000000000000000000000000",
      "type": "0x2",
      "transactionHash": "0xa17900c865e1c3096d65f3c34b940e04602021abdab04cb4043848dc6d6a324f",
      "transactionIndex": "0x61",
      "blockHash": "0x08212f72266410f462d0dee5f61ebbddb8f5592505f83cd0788fbc9e3961cb0b",
      "blockNumber": "0x9d776b",
      "gasUsed": "0x1a7dd8",
      "effectiveGasPrice": "0xf4261",
      "from": "0xe5d7e81226e2ca1355f8954673ece59fe40fdbfd",
      "to": null,
      "contractAddress": "0x5232b415ed0659df82d8de436292d36d780e5a53"
    },
    {
      "status": "0x1",
      "cumulativeGasUsed": "0x19ae164",
      "logs": [
        {
          "address": "0x5232b415ed0659df82d8de436292d36d780e5a53",
          "topics": [
            "0x2f8788117e7eff1d82e926ec794901d17c78024a50270940304540a733656f0d",
            "0xe2f2c6ec490c385a19982d62c2eab738afebfd5de935a92469733daed358fe58",
            "0x000000000000000000000000e5d7e81226e2ca1355f8954673ece59fe40fdbfd",
            "0x000000000000000000000000e5d7e81226e2ca1355f8954673ece59fe40fdbfd"
          ],
          "data": "0x",
          "blockHash": "0x08212f72266410f462d0dee5f61ebbddb8f5592505f83cd0788fbc9e3961cb0b",
          "blockNumber": "0x9d776b",
          "blockTimestamp": "0x699c2afc",
          "transactionHash": "0xe592d7a38d0528b38712abc827b77cc82fbf9db5d5506f6b697349f61ed32dca",
          "transactionIndex": "0x62",
          "logIndex": "0xe2",
          "removed": false
        },
        {
          "address": "0x5232b415ed0659df82d8de436292d36d780e5a53",
          "topics": [
            "0x2f8788117e7eff1d82e926ec794901d17c78024a50270940304540a733656f0d",
            "0x1893e1a169e79f2fe8aa327b1bceb2fede7a1b76a54824f95ea0e737720954ae",
            "0x000000000000000000000000e5d7e81226e2ca1355f8954673ece59fe40fdbfd",
            "0x000000000000000000000000e5d7e81226e2ca1355f8954673ece59fe40fdbfd"
          ],
          "data": "0x",
          "blockHash": "0x08212f72266410f462d0dee5f61ebbddb8f5592505f83cd0788fbc9e3961cb0b",
          "blockNumber": "0x9d776b",
          "blockTimestamp": "0x699c2afc",
          "transactionHash": "0xe592d7a38d0528b38712abc827b77cc82fbf9db5d5506f6b697349f61ed32dca",
          "transactionIndex": "0x62",
          "logIndex": "0xe3",
          "removed": false
        }
      ],
      "logsBloom": "0x00000004000000000000000000000000000000000000000000000000000000000000000000000000000000000000000000000000000000000001000000000000000000400100000000000000000000000000000000000000000000000000000000000000000000000000000000000000000000000000000000000000001000000000000000000000000800000000000000000000000000000000000400000000000000000000000000000000804000000800000000000000001000000000000000200000000000000000000000000000000000000000000100000000000000000000000000000000000000000020000000000000000000000000000000001000",
      "type": "0x2",
      "transactionHash": "0xe592d7a38d0528b38712abc827b77cc82fbf9db5d5506f6b697349f61ed32dca",
      "transactionIndex": "0x62",
      "blockHash": "0x08212f72266410f462d0dee5f61ebbddb8f5592505f83cd0788fbc9e3961cb0b",
      "blockNumber": "0x9d776b",
      "gasUsed": "0x32ec9",
      "effectiveGasPrice": "0xf4261",
      "from": "0xe5d7e81226e2ca1355f8954673ece59fe40fdbfd",
      "to": "0x5232b415ed0659df82d8de436292d36d780e5a53",
      "contractAddress": null
    },
    {
      "status": "0x1",
      "cumulativeGasUsed": "0x1ae556f",
      "logs": [
        {
          "address": "0x4c411c1d1b1563ea02505c8ba5234f925bee2d32",
          "topics": [
            "0x2f8788117e7eff1d82e926ec794901d17c78024a50270940304540a733656f0d",
            "0x0000000000000000000000000000000000000000000000000000000000000000",
            "0x000000000000000000000000e5d7e81226e2ca1355f8954673ece59fe40fdbfd",
            "0x000000000000000000000000e5d7e81226e2ca1355f8954673ece59fe40fdbfd"
          ],
          "data": "0x",
          "blockHash": "0x08212f72266410f462d0dee5f61ebbddb8f5592505f83cd0788fbc9e3961cb0b",
          "blockNumber": "0x9d776b",
          "blockTimestamp": "0x699c2afc",
          "transactionHash": "0x236224959bc1023376223f8e46de310cdeef8b7385a066e77851bf518e7f7b2e",
          "transactionIndex": "0x63",
          "logIndex": "0xe4",
          "removed": false
        },
        {
          "address": "0x4c411c1d1b1563ea02505c8ba5234f925bee2d32",
          "topics": [
            "0x2f8788117e7eff1d82e926ec794901d17c78024a50270940304540a733656f0d",
            "0x31e0210044b4f6757ce6aa31f9c6e8d4896d24a755014887391a926c5224d959",
            "0x0000000000000000000000005232b415ed0659df82d8de436292d36d780e5a53",
            "0x000000000000000000000000e5d7e81226e2ca1355f8954673ece59fe40fdbfd"
          ],
          "data": "0x",
          "blockHash": "0x08212f72266410f462d0dee5f61ebbddb8f5592505f83cd0788fbc9e3961cb0b",
          "blockNumber": "0x9d776b",
          "blockTimestamp": "0x699c2afc",
          "transactionHash": "0x236224959bc1023376223f8e46de310cdeef8b7385a066e77851bf518e7f7b2e",
          "transactionIndex": "0x63",
          "logIndex": "0xe5",
          "removed": false
        }
      ],
      "logsBloom": "0x00000004000000000800000000000008000000000000000000000000000000000000000000000000000000008000000000000000000000000000000000000000000000000000000000000000000000000000000000000000000000000000000000000000020000000000000000000800000080000000000000000000001000000000000000000000000800000000000080000000000000000000000000000000000000000000000000000000000000000000000000000000001000000000000000200000000000000002000000020000000000000000000100000000000020000000000000080000000000000000000000000000000200000000000000000000",
      "type": "0x2",
      "transactionHash": "0x236224959bc1023376223f8e46de310cdeef8b7385a066e77851bf518e7f7b2e",
      "transactionIndex": "0x63",
      "blockHash": "0x08212f72266410f462d0dee5f61ebbddb8f5592505f83cd0788fbc9e3961cb0b",
      "blockNumber": "0x9d776b",
      "gasUsed": "0x13740b",
      "effectiveGasPrice": "0xf4261",
      "from": "0xe5d7e81226e2ca1355f8954673ece59fe40fdbfd",
      "to": null,
      "contractAddress": "0x4c411c1d1b1563ea02505c8ba5234f925bee2d32"
    },
    {
      "status": "0x1",
      "cumulativeGasUsed": "0x1af0b1b",
      "logs": [],
      "logsBloom": "0x00000000000000000000000000000000000000000000000000000000000000000000000000000000000000000000000000000000000000000000000000000000000000000000000000000000000000000000000000000000000000000000000000000000000000000000000000000000000000000000000000000000000000000000000000000000000000000000000000000000000000000000000000000000000000000000000000000000000000000000000000000000000000000000000000000000000000000000000000000000000000000000000000000000000000000000000000000000000000000000000000000000000000000000000000000000",
      "type": "0x2",
      "transactionHash": "0x5eb54bc1436a0cd84d4f1c78b102d477d60d3686bbec4adf759b83efe267075d",
      "transactionIndex": "0x64",
      "blockHash": "0x08212f72266410f462d0dee5f61ebbddb8f5592505f83cd0788fbc9e3961cb0b",
      "blockNumber": "0x9d776b",
      "gasUsed": "0xb5ac",
      "effectiveGasPrice": "0xf4261",
      "from": "0xe5d7e81226e2ca1355f8954673ece59fe40fdbfd",
      "to": "0x5232b415ed0659df82d8de436292d36d780e5a53",
      "contractAddress": null
    },
    {
      "status": "0x1",
      "cumulativeGasUsed": "0x1b09f75",
      "logs": [
        {
          "address": "0x165fb8bcda88b586e378c556ef582f095794858e",
          "topics": [
            "0x9359434f26750588cf01310b29e7feaffc79cb7196bb5815a5ff4cbd575fee5e",
            "0x0000000000000000000000000000000000000000000000000000000000000002"
          ],
          "data": "0x0000000000000000000000006f551ed64a4ddc10260a30707bb287ad3d6588a20000000000000000000000005232b415ed0659df82d8de436292d36d780e5a530000000000000000000000004c411c1d1b1563ea02505c8ba5234f925bee2d32",
          "blockHash": "0x08212f72266410f462d0dee5f61ebbddb8f5592505f83cd0788fbc9e3961cb0b",
          "blockNumber": "0x9d776b",
          "blockTimestamp": "0x699c2afc",
          "transactionHash": "0x4cbadd6b380741be98f5f258c3b183919b56a3996bb26c51b423c0b4605ad065",
          "transactionIndex": "0x65",
          "logIndex": "0xe6",
          "removed": false
        }
      ],
      "logsBloom": "0x04000000000000000000000000000000000000000000000000000000000000000000000000000000000000000000000000000000000000000000000000000000000000000800000000000000000000000000000000000000000000000000000000000000800000000000000000000000000000000000000000000000000000000000000000000000000000000000000000000000000000000000400000000000000000000000000000000100000000000000000000000000000000000000000000000000000000000000000000000000000000000000000000000000000000000000000000000000000000000000000000000040008000000000000020000040",
      "type": "0x2",
      "transactionHash": "0x4cbadd6b380741be98f5f258c3b183919b56a3996bb26c51b423c0b4605ad065",
      "transactionIndex": "0x65",
      "blockHash": "0x08212f72266410f462d0dee5f61ebbddb8f5592505f83cd0788fbc9e3961cb0b",
      "blockNumber": "0x9d776b",
      "gasUsed": "0x1945a",
      "effectiveGasPrice": "0xf4261",
      "from": "0xe5d7e81226e2ca1355f8954673ece59fe40fdbfd",
      "to": "0x165fb8bcda88b586e378c556ef582f095794858e",
      "contractAddress": null
    },
    {
      "status": "0x1",
      "cumulativeGasUsed": "0x1b190ab",
      "logs": [
        {
          "address": "0x165fb8bcda88b586e378c556ef582f095794858e",
          "topics": [
            "0x0790c8d81a0cc3bfed1b6e0f29e489b9c93cffb85cf2164ecc769a7946437056",
            "0x0000000000000000000000000000000000000000000000000000000000000002"
          ],
          "data": "0x00000000000000000000000000000000000000000000000000000000699c2afc",
          "blockHash": "0x08212f72266410f462d0dee5f61ebbddb8f5592505f83cd0788fbc9e3961cb0b",
          "blockNumber": "0x9d776b",
          "blockTimestamp": "0x699c2afc",
          "transactionHash": "0x231e2577773320cdcae5379cb6af0ed83a362b0aa11215a1ea2e7c79344083fc",
          "transactionIndex": "0x66",
          "logIndex": "0xe7",
          "removed": false
        }
      ],
      "logsBloom": "0x04000000000000000000000000000000000000000000000000000000000000000000000000000000000000000000000000000000000000000000000000000000000000000800000000000000000000000000000000000000000000000040000000000000000000000000000000000000000000000000000000000000000000000000000000000000000000000000000000000000000000000000400000000000000000000000000000000100000000000000000000000000000000000000000000000000004000000000000000000000000000000000000000000000000000000000000000000000000000000000040000000000008000000000000000000040",
      "type": "0x2",
      "transactionHash": "0x231e2577773320cdcae5379cb6af0ed83a362b0aa11215a1ea2e7c79344083fc",
      "transactionIndex": "0x66",
      "blockHash": "0x08212f72266410f462d0dee5f61ebbddb8f5592505f83cd0788fbc9e3961cb0b",
      "blockNumber": "0x9d776b",
      "gasUsed": "0xf136",
      "effectiveGasPrice": "0xf4261",
      "from": "0xe5d7e81226e2ca1355f8954673ece59fe40fdbfd",
      "to": "0x165fb8bcda88b586e378c556ef582f095794858e",
      "contractAddress": null
    },
    {
      "status": "0x1",
      "cumulativeGasUsed": "0x1b24b16",
      "logs": [
        {
          "address": "0x77b0347f171cd8782506bd6d35ea7601ec11561c",
          "topics": [
            "0xc4b5eda34df48549ecc924f6209d5f72700136b26c01f1a8f2a6f8ac7198898d",
            "0x0000000000000000000000000000000000000000000000000000000000000002"
          ],
          "data": "0x0000000000000000000000004c411c1d1b1563ea02505c8ba5234f925bee2d32",
          "blockHash": "0x08212f72266410f462d0dee5f61ebbddb8f5592505f83cd0788fbc9e3961cb0b",
          "blockNumber": "0x9d776b",
          "blockTimestamp": "0x699c2afc",
          "transactionHash": "0x63cb2bc0f4a6c97ac1b65792d3345ff24d5216c5d8f8eeb1b27bf8f8b4f746ab",
          "transactionIndex": "0x67",
          "logIndex": "0xe8",
          "removed": false
        }
      ],
      "logsBloom": "0x04000000000004000000000000000000000000000000000000000000000000000000000000000000000000000000000000000000000000000000000000000000000000000000040000000000000000000000000000000000000000000000000000000000000000000000000000000000000000000000000000100000000000000000000000000000000000000000000000200000000000000000000000000000020000000000000000000100000000020000000000000000000000000000000000000000000000000000000000000000000000000000000000000000000000000000000000000000000000000000000000000000008000000000000000000000",
      "type": "0x2",
      "transactionHash": "0x63cb2bc0f4a6c97ac1b65792d3345ff24d5216c5d8f8eeb1b27bf8f8b4f746ab",
      "transactionIndex": "0x67",
      "blockHash": "0x08212f72266410f462d0dee5f61ebbddb8f5592505f83cd0788fbc9e3961cb0b",
      "blockNumber": "0x9d776b",
      "gasUsed": "0xba6b",
      "effectiveGasPrice": "0xf4261",
      "from": "0xe5d7e81226e2ca1355f8954673ece59fe40fdbfd",
      "to": "0x77b0347f171cd8782506bd6d35ea7601ec11561c",
      "contractAddress": null
    },
    {
      "status": "0x1",
      "cumulativeGasUsed": "0x1b30684",
      "logs": [
        {
          "address": "0x77b0347f171cd8782506bd6d35ea7601ec11561c",
          "topics": [
            "0x5574600072d1387acaf7767838cc3430dd5050669cec8a03496369899660685a",
            "0x0000000000000000000000000000000000000000000000000000000000000002"
          ],
          "data": "0x0000000000000000000000006f551ed64a4ddc10260a30707bb287ad3d6588a2",
          "blockHash": "0x08212f72266410f462d0dee5f61ebbddb8f5592505f83cd0788fbc9e3961cb0b",
          "blockNumber": "0x9d776b",
          "blockTimestamp": "0x699c2afc",
          "transactionHash": "0xe2020788b449d4f9c6d0db61af2d43a28b43d57363f896d3ecb3a04cd6aff525",
          "transactionIndex": "0x68",
          "logIndex": "0xe9",
          "removed": false
        }
      ],
      "logsBloom": "0x04000000000004000000000000000000000000000000000000000000000000000000000000000000000000000000000000000000000000000000000000000000000000000000040008000000000000000000000000000000000000000000000000001000001000000000000000000000000000000000000000000000000000000000000000000000000000000000000000000000000000000000000000000000000000000000000000000100000000020000000000000000000000000000000000000000000000000000000000000000000000000000000000000000000000000000000000000000000000000000000000000000008000000000000000000000",
      "type": "0x2",
      "transactionHash": "0xe2020788b449d4f9c6d0db61af2d43a28b43d57363f896d3ecb3a04cd6aff525",
      "transactionIndex": "0x68",
      "blockHash": "0x08212f72266410f462d0dee5f61ebbddb8f5592505f83cd0788fbc9e3961cb0b",
      "blockNumber": "0x9d776b",
      "gasUsed": "0xbb6e",
      "effectiveGasPrice": "0xf4261",
      "from": "0xe5d7e81226e2ca1355f8954673ece59fe40fdbfd",
      "to": "0x77b0347f171cd8782506bd6d35ea7601ec11561c",
      "contractAddress": null
    },
    {
      "status": "0x1",
      "cumulativeGasUsed": "0x1b48bd4",
      "logs": [
        {
          "address": "0x4c411c1d1b1563ea02505c8ba5234f925bee2d32",
          "topics": [
            "0xddf252ad1be2c89b69c2b068fc378daa952ba7f163c4a11628f55a4df523b3ef",
            "0x0000000000000000000000000000000000000000000000000000000000000000",
            "0x000000000000000000000000e5d7e81226e2ca1355f8954673ece59fe40fdbfd"
          ],
          "data": "0x0000000000000000000000000000000000000000000069e10de76676d0800000",
          "blockHash": "0x08212f72266410f462d0dee5f61ebbddb8f5592505f83cd0788fbc9e3961cb0b",
          "blockNumber": "0x9d776b",
          "blockTimestamp": "0x699c2afc",
          "transactionHash": "0x233c7c0e0165d9260ec1032833fa7c7b1aa5050fe8d38b6cea28f4406a7ee09f",
          "transactionIndex": "0x69",
          "logIndex": "0xea",
          "removed": false
        },
        {
          "address": "0x4c411c1d1b1563ea02505c8ba5234f925bee2d32",
          "topics": [
            "0xb9144c96c86541f6fa89c9f2f02495cccf4b08cd6643e26d34ee00aa586558a8",
            "0x000000000000000000000000e5d7e81226e2ca1355f8954673ece59fe40fdbfd"
          ],
          "data": "0x0000000000000000000000000000000000000000000069e10de76676d0800000",
          "blockHash": "0x08212f72266410f462d0dee5f61ebbddb8f5592505f83cd0788fbc9e3961cb0b",
          "blockNumber": "0x9d776b",
          "blockTimestamp": "0x699c2afc",
          "transactionHash": "0x233c7c0e0165d9260ec1032833fa7c7b1aa5050fe8d38b6cea28f4406a7ee09f",
          "transactionIndex": "0x69",
          "logIndex": "0xeb",
          "removed": false
        }
      ],
      "logsBloom": "0x00000000000000000000000000000000000000000000000000000000000000000000100000000000000000008000000000000000000000000000000000000000000000000000000000000008000000000000000000000000000000000000000000000000020000000000000000000800000000000000000000000010001000000000000000000000000800000000000000000000000000000000000000000000000000000000000000000000000000000000000000000000000000000000000000200002000000000002000000000000000000000000000000000000000020000000000000000000000001000000000000000000000200002000000000000000",
      "type": "0x2",
      "transactionHash": "0x233c7c0e0165d9260ec1032833fa7c7b1aa5050fe8d38b6cea28f4406a7ee09f",
      "transactionIndex": "0x69",
      "blockHash": "0x08212f72266410f462d0dee5f61ebbddb8f5592505f83cd0788fbc9e3961cb0b",
      "blockNumber": "0x9d776b",
      "gasUsed": "0x18550",
      "effectiveGasPrice": "0xf4261",
      "from": "0xe5d7e81226e2ca1355f8954673ece59fe40fdbfd",
      "to": "0x5232b415ed0659df82d8de436292d36d780e5a53",
      "contractAddress": null
    }
  ],
  "libraries": [],
  "pending": [],
  "returns": {},
  "timestamp": 1771842303606,
  "chain": 11155111,
  "commit": "f54547d"
}