{
  "transactions": [
    {
      "hash": "0x43afdf88e5fcd1de6fd6e09dbb9c7b2adabd12b0b800f7b0e7cf9fa60c1a554d",
      "transactionType": "CALL",
      "contractName": null,
      "contractAddress": "0xd33539af995b92b38f46a9fd301c0f80d1b977bf",
      "function": "whitelistRecipient(address)",
      "arguments": [
        "0xE5d7e81226E2Ca1355F8954673eCe59Fe40fDBFd"
      ],
      "transaction": {
        "from": "0xe5d7e81226e2ca1355f8954673ece59fe40fdbfd",
        "to": "0xd33539af995b92b38f46a9fd301c0f80d1b977bf",
        "gas": "0x10f47",
        "value": "0x0",
        "input": "0xf78fe978000000000000000000000000e5d7e81226e2ca1355f8954673ece59fe40fdbfd",
        "nonce": "0x17b",
        "chainId": "0xaa36a7"
      },
      "additionalContracts": [],
      "isFixedGasLimit": false
    },
    {
      "hash": "0x48fb437fca1aa151387fc82a3e0d137a188c9b02ca307036969130b055b475d8",
      "transactionType": "CALL",
      "contractName": null,
      "contractAddress": "0xd33539af995b92b38f46a9fd301c0f80d1b977bf",
      "function": "verifyKYC(address)",
      "arguments": [
        "0xEb8c9B9a94c0a44777dC5Fd2951204E43805103C"
      ],
      "transaction": {
        "from": "0xe5d7e81226e2ca1355f8954673ece59fe40fdbfd",
        "to": "0xd33539af995b92b38f46a9fd301c0f80d1b977bf",
        "gas": "0x100af",
        "value": "0x0",
        "input": "0x38d16011000000000000000000000000eb8c9b9a94c0a44777dc5fd2951204e43805103c",
        "nonce": "0x17c",
        "chainId": "0xaa36a7"
      },
      "additionalContracts": [],
      "isFixedGasLimit": false
    },
    {
      "hash": "0x19e7863b472fffb4184ddf090c9e0eab3fc6e94ae9635c08733de9510be23597",
      "transactionType": "CALL",
      "contractName": null,
      "contractAddress": "0xd33539af995b92b38f46a9fd301c0f80d1b977bf",
      "function": "whitelistRecipient(address)",
      "arguments": [
        "0xEb8c9B9a94c0a44777dC5Fd2951204E43805103C"
      ],
      "transaction": {
        "from": "0xe5d7e81226e2ca1355f8954673ece59fe40fdbfd",
        "to": "0xd33539af995b92b38f46a9fd301c0f80d1b977bf",
        "gas": "0x10f47",
        "value": "0x0",
        "input": "0xf78fe978000000000000000000000000eb8c9b9a94c0a44777dc5fd2951204e43805103c",
        "nonce": "0x17d",
        "chainId": "0xaa36a7"
      },
      "additionalContracts": [],
      "isFixedGasLimit": false
    },
    {
      "hash": "0xe42230c74083a7c0d9003f9816e3350fcd27d774e800730993fa928aaae2cbb9",
      "transactionType": "CALL",
      "contractName": null,
      "contractAddress": "0xd33539af995b92b38f46a9fd301c0f80d1b977bf",
      "function": "registerAsset(uint8,address,uint256,string)",
      "arguments": [
        "0",
        "0xE5d7e81226E2Ca1355F8954673eCe59Fe40fDBFd",
        "400000000000000000000000",
        "1913 NW 2nd Ave, Gainesville, FL 32603"
      ],
      "transaction": {
        "from": "0xe5d7e81226e2ca1355f8954673ece59fe40fdbfd",
        "to": "0xd33539af995b92b38f46a9fd301c0f80d1b977bf",
        "gas": "0x6474c",
        "value": "0x0",
        "input": "0xffddd9cd0000000000000000000000000000000000000000000000000000000000000000000000000000000000000000e5d7e81226e2ca1355f8954673ece59fe40fdbfd0000000000000000000000000000000000000000000054b40b1f852bda0000000000000000000000000000000000000000000000000000000000000000000080000000000000000000000000000000000000000000000000000000000000002631393133204e5720326e64204176652c204761696e657376696c6c652c20464c2033323630330000000000000000000000000000000000000000000000000000",
        "nonce": "0x17e",
        "chainId": "0xaa36a7"
      },
      "additionalContracts": [],
      "isFixedGasLimit": false
    },
    {
      "hash": "0x25535f93b3d7751c73f09ae8104b5240f497efb61312d59f98ffa434029beb18",
      "transactionType": "CREATE",
      "contractName": "RentalCashFlowLogic",
      "contractAddress": "0x5602b858866bd3108d1278c20eca54a5c0ac983e",
      "function": null,
      "arguments": null,
      "transaction": {
        "from": "0xe5d7e81226e2ca1355f8954673ece59fe40fdbfd",
        "gas": "0x131517",
        "value": "0x0",
        "input": "0x608080604052346100165761106a908161001b8239f35b5f80fdfe6080604081815260049182361015610015575f80fd5b5f92833560e01c9182630592a61214610cfc5750816307c47e6414610cdd578163158ef93e14610cb95781631cc1cf4614610c9a5781631ebf1a5514610c5057816326d3325d14610ae857816326fadbe214610a9a57816338f417ca14610a6d5781633c6a7f9b14610a4f578163439fab911461071657816345615716146106f65781634e7c13fe1461069f5781637633a22c1461062c5781637b103999146106725781637e8b06c1146106535781638acdca5e1461062c5781638c2281b014610471578163b42b2da514610452578163be03250b14610433578163d2fa0a08146103f9578163df9d58ff146101d357508063e2957dd1146101b5578063e6fd48bc14610197578063e8c300ee1461017d578063f41cb5d11461015f5763f8ef1e1314610140575f80fd5b3461015b578160031936011261015b57602091549051908152f35b5080fd5b503461015b578160031936011261015b576020906009549051908152f35b503461015b578160031936011261015b5751908152602090f35b503461015b578160031936011261015b576020906007549051908152f35b503461015b578160031936011261015b57602090600a549051908152f35b9050346103f557816003193601126103f557803560249384359061021160ff600c5461020b60018060a01b038260081c163314610e04565b16610e40565b60ff6005541660058110156103e3576003146103ad57600354821161037b57805483106103425761024182610f4a565b8082526020966006885260ff878420541661030b575091818388969487969452600686527fa62c35dfc0ff11d3713608ebcdc5c5d1952c7702620f2c46c22950f7b70d57978880842060ff1990600182825416179055836008556102a787600954610d6d565b60095560055416958660055581519081528589820152a286519081525f80516020611015833981519152958691a160035411156102f7575b82856102f56102ec610d7a565b91518092610d18565bf35b81176005558351908152a15f8281806102df565b8560136064928a8a519362461bcd60e51b85528401528201527214195c9a5bd908185b1c9958591e481c185a59606a1b6044820152fd5b845162461bcd60e51b815260208186015260148188015273125b9cdd59999a58da595b9d081c185e5b595b9d60621b6044820152606490fd5b845162461bcd60e51b8152602081860152600d818801526c1319585cd948195e1c1a5c9959609a1b6044820152606490fd5b845162461bcd60e51b815260208186015260118188015270105b1c9958591e48191959985d5b1d1959607a1b6044820152606490fd5b634e487b7160e01b8252602185528682fd5b8280fd5b919050346103f55760203660031901126103f557816020915f805160206110158339815191529360ff19600554161760055551908152a180f35b50503461015b578160031936011261015b576020906008549051908152f35b50503461015b578160031936011261015b576020906003549051908152f35b90508234610603576020366003190112610603578135916104a060018060a01b03600c5460081c163314610e04565b8351631ebf1a5560e01b815281810184905291608083602481305afa9182156106205781948294839461059e575b506005549360ff851694600587101561058b5760ff191660ff871617600555839160028714801561057e575b610567575b505061055457600583101561055457505090806102f59203610532575b61052884518094610d18565b6020830190610d39565b5f805160206110158339815191526020855161054e8185610d39565ba161051c565b634e487b7160e01b825260219052602490fd5b6105719082610f82565b600a55600b5587806104ff565b50849250600387146104fa565b634e487b7160e01b855260218452602485fd5b95509250925060803d8111610619575b601f8101601f1916850167ffffffffffffffff81118682101761060657608091869188528101031261060357835192600984101561015b5760208501519460058610156103f5576060015193949392876104ce565b80fd5b634e487b7160e01b835260418552602483fd5b503d6105ae565b508451903d90823e3d90fd5b50503461015b578160031936011261015b576020906102f560ff6005541691518092610d39565b50503461015b578160031936011261015b576020906002549051908152f35b50503461015b578160031936011261015b57600c54905160089190911c6001600160a01b03168152602090f35b50503461015b578160031936011261015b576020906106cc60018060a01b03600c5460081c163314610e04565b600360ff1960055416176005555f8051602061101583398151915282825160038152a15160018152f35b50503461015b578160031936011261015b576020906102f56102ec610d7a565b919050346103f557602080600319360112610a0b5782359167ffffffffffffffff808411610a4b5736602385011215610a4b5783850135908111610a4b5783019060243681840111610a4757600c549260ff8416610a0f579060e086899594930312610a0b578594859485948386013599866044808201359660e460c460a460846064809701359d01359d01359d01359d01359560018060a01b039081881688036106035760038e905560028d905560018a90558f905560089690961b610100600160a81b0316958e156109dd578d156109ab578d80601c0290601c82040361099857891061096457610100600160a81b03198616871760081c1615610933578c6005028d60058204036109215761082e908b610d6d565b42116108e357898c11156108a55750505060078790558990556005805460ff191690556001600160a81b03191617600117600c5582519788528701528501526060840152608083015260a08201527ff9942075be21ecf4573e3db2ac4f77f2d4f78f089a1b02b79062dcede6b956279060c090a180f35b8391601a7f4c6561736520656e64206265666f72652066697273742064756500000000000092898c519562461bcd60e51b8752860152840152820152fd5b8391601e7f466972737420647565206461746520746f6f2066617220696e2070617374000092898c519562461bcd60e51b8752860152840152820152fd5b50634e487b7160e01b8f52601184528efd5b839160106f496e76616c696420726567697374727960801b92898c519562461bcd60e51b8752860152840152820152fd5b508391601271125b9d195c9d985b081d1bdbc81cda1bdc9d60721b92898c519562461bcd60e51b8752860152840152820152fd5b5050634e487b7160e01b8f52601184528efd5b50839160106f125b9d985b1a59081d1a5b59555b9a5d60821b92898c519562461bcd60e51b8752860152840152820152fd5b508391600c6b125b9d985b1a59081c995b9d60a21b92898c519562461bcd60e51b8752860152840152820152fd5b8380fd5b825162461bcd60e51b815280880186905260138184015272105b1c9958591e481a5b9a5d1a585b1a5e9959606a1b6044820152606490fd5b8680fd5b8580fd5b9050346103f557826003193601126103f55760209250549051908152f35b9050346103f55760203660031901126103f5578160209360ff923581526006855220541690519015158152f35b50503461015b578160031936011261015b5790606091610ad2610abc42610f4a565b610acc6007549160015490610d46565b90610d6d565b9154906003549181519384526020840152820152f35b83833461015b57602036600319011261015b57826101009335908360e08451610b1081610da8565b82815282602082015282868201528260608201528260808201528260a08201528260c08201520152610b4182610f4a565b93610b54600754610acc60015488610d46565b948152600660205260ff8482205416928194841594858096610c47575b610c2a575b835497610b90610b8a600254975488610d46565b82610d6d565b9115610c22578089945b10159687610c1a575b50825195610bb087610da8565b89875260208701918252838701928352606087019485526080870195865260e060a08801978a895260c081019915158a520198118852825198895251602089015251908701525160608601525160808501525160a084015251151560c083015251151560e0820152f35b96508a610ba3565b808594610b9a565b9550610c41610c398884610dd9565b855490610de6565b95610b76565b50878311610b71565b90508234610603576020366003190112610603576080610c9084610c748535610e7e565b9391610c868396929496518097610d18565b6020860190610d39565b8301526060820152f35b50503461015b578160031936011261015b576020906001549051908152f35b50503461015b578160031936011261015b5760209060ff600c541690519015158152f35b50503461015b578160031936011261015b57602090600b549051908152f35b84903461015b578160031936011261015b576020906009548152f35b906009821015610d255752565b634e487b7160e01b5f52602160045260245ffd5b906005821015610d255752565b81810292918115918404141715610d5957565b634e487b7160e01b5f52601160045260245ffd5b91908201809211610d5957565b60ff600554166005811015610d255760038114610da257600414610d9d57600290565b600890565b50600490565b610100810190811067ffffffffffffffff821117610dc557604052565b634e487b7160e01b5f52604160045260245ffd5b91908203918211610d5957565b8115610df0570490565b634e487b7160e01b5f52601260045260245ffd5b15610e0b57565b60405162461bcd60e51b815260206004820152600d60248201526c4f6e6c7920726567697374727960981b6044820152606490fd5b15610e4757565b60405162461bcd60e51b815260206004820152600f60248201526e139bdd081a5b9a5d1a585b1a5e9959608a1b6044820152606490fd5b610e8c60ff600c5416610e40565b600354811015610f3757610e9f81610f4a565b610eb1600754610acc60015484610d46565b5f828152600660205260ff604082205416610f2c5781841115610f245750610edc610ee59184610dd9565b60045490610de6565b915b826002548110610f175750610efe60029183610f82565b1015610f0d5760029283929190565b6004926003929190565b9250506002926001929190565b905091610ee7565b925050600292829190565b610f4090610f4a565b6008916004915f91565b60075490818110610f6e57610f6b91610f6291610dd9565b60015490610de6565b90565b50505f90565b5f198114610d595760010190565b6002546007546001545f95948692909190835b86811115610fa65750505050505050565b808552600660205260ff604086205416610fea5785610fce610fc88584610d46565b84610d6d565b8086111561100d57610edc610fe39187610dd9565b1015610ff8575b610ff390610f74565b610f95565b97611005610ff391610f74565b989050610fea565b5085610fe356fe784218e19c0007f03f5c1f12e90bda7d4631acfbd176a7d385530c4b1f494b47a264697066735822122088dd918b7919cf75a8b110e25137db91a36f386b7d2a768dba4080f7b31f23a264736f6c63430008140033",
        "nonce": "0x17f",
        "chainId": "0xaa36a7"
      },
      "additionalContracts": [],
      "isFixedGasLimit": false
    },
    {
      "hash": "0xea26298d4c7d4a23c4a448c426a1f63343d8f7e989b744b51ae470712c9e3a28",
      "transactionType": "CALL",
      "contractName": "RentalCashFlowLogic",
      "contractAddress": "0x5602b858866bd3108d1278c20eca54a5c0ac983e",
      "function": "initialize(bytes)",
      "arguments": [
        "0x00000000000000000000000000000000000000000000006c6b935b8bbd4000000000000000000000000000000000000000000000000000000000000000278d000000000000000000000000000000000000000000000000000000000069a526280000000000000000000000000000000000000000000000000000000000000005000000000000000000000000000000000000000000000000000000006b8659a80000000000000000000000000000000000000000000000000000000000015180000000000000000000000000d33539af995b92b38f46a9fd301c0f80d1b977bf"
      ],
      "transaction": {
        "from": "0xe5d7e81226e2ca1355f8954673ece59fe40fdbfd",
        "to": "0x5602b858866bd3108d1278c20eca54a5c0ac983e",
        "gas": "0x4168f",
        "value": "0x0",
        "input": "0x439fab91000000000000000000000000000000000000000000000000000000000000002000000000000000000000000000000000000000000000000000000000000000e000000000000000000000000000000000000000000000006c6b935b8bbd4000000000000000000000000000000000000000000000000000000000000000278d000000000000000000000000000000000000000000000000000000000069a526280000000000000000000000000000000000000000000000000000000000000005000000000000000000000000000000000000000000000000000000006b8659a80000000000000000000000000000000000000000000000000000000000015180000000000000000000000000d33539af995b92b38f46a9fd301c0f80d1b977bf",
        "nonce": "0x180",
        "chainId": "0xaa36a7"
      },
      "additionalContracts": [],
      "isFixedGasLimit": false
    },
    {
      "hash": "0x3fa79208f77d4c2b404ee9f865283a8e352ecdfcaa2e29638d8bb8026a0d31ea",
      "transactionType": "CREATE",
      "contractName": "InvestorShareToken",
      "contractAddress": "0xda69a867521a694748688655fe3bdf68ccee9e83",
      "function": null,
      "arguments": [
        "1",
        "CreditWeave Property Share",
        "CWRWA",
        "400000000000000000000000",
        "0xD33539AF995B92B38F46A9Fd301c0f80D1B977BF",
        "0xE5d7e81226E2Ca1355F8954673eCe59Fe40fDBFd",
        "400000000000000000000000"
      ],
      "transaction": {
        "from": "0xe5d7e81226e2ca1355f8954673ece59fe40fdbfd",
        "gas": "0xf5ec5",
        "value": "0x0",
        "input": "0x60e0604090808252346200064357620011ba803803809162000022828562000647565b8339810160e0828203126200064357815191602091828201519160018060401b03928381116200064357826200005a9183016200066b565b9186820151908482116200064357620000759183016200066b565b916060820151906200008a60808401620006e0565b9060c06200009b60a08601620006e0565b9401519581518181116200053f576003908154906001948583811c9316801562000638575b8c841014620006245781908c601f94858111620005ce575b50508c908483116001146200055f575f9262000553575b50505f1982851b1c191690851b1782555b87519283116200053f5760049788548581811c9116801562000534575b8c821014620005215780838d9211620004d7575b50508a9184116001146200046e579383949184925f9562000462575b50501b925f19911b1c19161784555b86156200042d578115620003ea576001600160a01b03818116938415620003b45716968715620003805785156200033d57828611620002fa5760805260a05260c0528551633af32abf60e01b8152828101869052908490829060249082905afa908115620002f0575f91620002ac575b50156200026957600254908282018092116200025657506002555f8381528083528481208054830190558451918252917fddf252ad1be2c89b69c2b068fc378daa952ba7f163c4a11628f55a4df523b3ef91a351610ac49081620006f682396080518181816102fc015261070e015260a05181818161027e01526106eb015260c051816101130152f35b601190634e487b7160e01b5f525260245ffd5b845162461bcd60e51b8152908101839052601e60248201527f496e697469616c20686f6c646572206e6f742077686974656c697374656400006044820152606490fd5b8481813d8311620002e8575b620002c4818362000647565b81010312620002e45751908115158203620002e157505f620001cc565b80fd5b5080fd5b503d620002b8565b86513d5f823e3d90fd5b885162461bcd60e51b8152808601889052601a60248201527f496e697469616c20737570706c792065786365656473206d61780000000000006044820152606490fd5b885162461bcd60e51b8152808601889052601a60248201527f496e697469616c20737570706c79206d757374206265203e20300000000000006044820152606490fd5b885162461bcd60e51b8152808601889052600e60248201526d24b73b30b634b2103437b63232b960911b6044820152606490fd5b895162461bcd60e51b8152808701899052601060248201526f496e76616c696420726567697374727960801b6044820152606490fd5b875162461bcd60e51b8152808501879052601660248201527f4d617820737570706c79206d757374206265203e2030000000000000000000006044820152606490fd5b875162461bcd60e51b8152808501879052600f60248201526e125b9d985b1a5908185cdcd95d1259608a1b6044820152606490fd5b015193505f806200014d565b9190601f19841692895f52848c5f20948d5f905b89838310620004be5750505010620004a4575b50505050811b0184556200015c565b01519060f8845f19921b161c191690555f80808062000495565b8686015189559097019694850194889350018e62000482565b8a5f5283825f209181880160051c830193881062000517575b0160051c019086905b8281106200050b57508c915062000131565b5f8155018690620004f9565b92508192620004f0565b60228a634e487b7160e01b5f525260245ffd5b90607f16906200011d565b634e487b7160e01b5f52604160045260245ffd5b015190505f80620000ef565b879350908d91601f198416875f52835f20935f905b828210620005ac575050841162000594575b505050811b01825562000100565b01515f1983871b60f8161c191690555f808062000586565b91929395968291958786015181550195019301908f918a969594939262000574565b90919250855f5284825f209181860160051c83019386106200061a575b918991869594930160051c01915b8281106200060b57508e9150620000d8565b5f8155859450899101620005f9565b92508192620005eb565b634e487b7160e01b5f52602260045260245ffd5b92607f1692620000c0565b5f80fd5b601f909101601f19168101906001600160401b038211908210176200053f57604052565b919080601f8401121562000643578251906001600160401b0382116200053f5760405191602091620006a7601f8301601f191684018562000647565b81845282828701011162000643575f5b818110620006cc5750825f9394955001015290565b8581018301518482018401528201620006b7565b51906001600160a01b0382168203620006435756fe6080604081815260049182361015610015575f80fd5b5f92833560e01c91826306fdde031461052b57508163095ea7b31461047d57816318160ddd1461045e57816319d487291461043157816323b872dd1461033b578163313ce5671461031f57816344de240a146102e457816370a08231146102ad5781637b1039991461026957816395d89b411461016657508063a9059cbb14610136578063d5abeb01146100fc5763dd62ed3e146100b1575f80fd5b346100f857806003193601126100f857806020926100cd610667565b6100d5610681565b6001600160a01b0391821683526001865283832091168252845220549051908152f35b5080fd5b50346100f857816003193601126100f857602090517f00000000000000000000000000000000000000000000000000000000000000008152f35b50346100f857806003193601126100f85760209061015f610155610667565b60243590336106cd565b5160018152f35b8383346100f857816003193601126100f857805191809380549160019083821c9282851694851561025f575b602095868610811461024c5785895290811561022857506001146101d0575b6101cc87876101c2828c0383610697565b5191829182610620565b0390f35b81529295507f8a35acfbc15ff81a39ae7d344fd709f28e8600b4aa8c65c6b64bfe7fe36bd19b5b82841061021557505050826101cc946101c2928201019486806101b1565b80548685018801529286019281016101f7565b60ff19168887015250505050151560051b83010192506101c2826101cc86806101b1565b634e487b7160e01b845260228352602484fd5b93607f1693610192565b5050346100f857816003193601126100f857517f00000000000000000000000000000000000000000000000000000000000000006001600160a01b03168152602090f35b5050346100f85760203660031901126100f85760209181906001600160a01b036102d5610667565b16815280845220549051908152f35b5050346100f857816003193601126100f857602090517f00000000000000000000000000000000000000000000000000000000000000008152f35b5050346100f857816003193601126100f8576020905160128152f35b9050823461042e57606036600319011261042e57610357610667565b61035f610681565b916044359360018060a01b038316808352600160205286832033845260205286832054915f19831061039a575b60208861015f8989896106cd565b8683106104025781156103eb5733156103d45750825260016020908152868320338452815291869020908590039055829061015f8761038c565b8751634a1406b160e11b8152908101849052602490fd5b875163e602df0560e01b8152908101849052602490fd5b8751637dc7a0d960e11b8152339181019182526020820193909352604081018790528291506060010390fd5b80fd5b5050346100f85760203660031901126100f857602090610457610452610667565b610a3f565b9051908152f35b5050346100f857816003193601126100f8576020906002549051908152f35b905034610527578160031936011261052757610497610667565b602435903315610510576001600160a01b03169182156104f957508083602095338152600187528181208582528752205582519081527f8c5be1e5ebec7d5bd14f71427d1e84f3dd0314c0f7b2291e5b200ac8c7c3b925843392a35160018152f35b8351634a1406b160e11b8152908101859052602490fd5b835163e602df0560e01b8152808401869052602490fd5b8280fd5b9291503461061c578360031936011261061c57600354600181811c9186908281168015610612575b60209586861082146105ff57508488529081156105dd5750600114610584575b6101cc86866101c2828b0383610697565b929550600383527fc2575a0e9e593c00f959f8c92f12db2869c3395a3b0502d05e2516446f71f85b5b8284106105ca57505050826101cc946101c292820101945f610573565b80548685018801529286019281016105ad565b60ff191687860152505050151560051b83010192506101c2826101cc5f610573565b634e487b7160e01b845260229052602483fd5b93607f1693610553565b8380fd5b602080825282518183018190529093925f5b82811061065357505060409293505f838284010152601f8019910116010190565b818101860151848201604001528501610632565b600435906001600160a01b038216820361067d57565b5f80fd5b602435906001600160a01b038216820361067d57565b90601f8019910116810190811067ffffffffffffffff8211176106b957604052565b634e487b7160e01b5f52604160045260245ffd5b6001600160a01b0392818416928315610a0f5784169384156109f7577f000000000000000000000000000000000000000000000000000000000000000016917f0000000000000000000000000000000000000000000000000000000000000000926040918251631174806160e11b8152600492868483015260209660249288818581865afa908115610943575f916109da575b50156109a557855190631f50b2cb60e01b82528582015287818481855afa90811561099b575f9161097e575b5061094d578451633af32abf60e01b8082528582018a90529088818581865afa908115610943575f91610926575b50156108eb5787908387518094819382528d898301525afa9081156108e1575f916108b4575b50156108735750855f525f8552825f20549184831061083f57505090827fddf252ad1be2c89b69c2b068fc378daa952ba7f163c4a11628f55a4df523b3ef949392865f525f855203815f2055855f52805f2082815401905551908152a3565b835163391434e360e21b81526001600160a01b03909216908201908152602081018390526040810185905281906060010390fd5b6019915085606494519362461bcd60e51b85528401528201527f526563697069656e74206e6f742077686974656c6973746564000000000000006044820152fd5b6108d49150873d89116108da575b6108cc8183610697565b810190610a27565b5f6107e0565b503d6108c2565b85513d5f823e3d90fd5b855162461bcd60e51b81528086018990526016818501527514d95b99195c881b9bdd081dda1a5d195b1a5cdd195960521b6044820152606490fd5b61093d9150893d8b116108da576108cc8183610697565b5f6107ba565b87513d5f823e3d90fd5b845162461bcd60e51b8152808501889052600c818401526b105cdcd95d081c185d5cd95960a21b6044820152606490fd5b6109959150883d8a116108da576108cc8183610697565b5f61078c565b86513d5f823e3d90fd5b855162461bcd60e51b81528086018990526010818501526f4173736574206e6f742061637469766560801b6044820152606490fd5b6109f19150893d8b116108da576108cc8183610697565b5f610760565b60405163ec442f0560e01b81525f6004820152602490fd5b604051634b637e8f60e11b81525f6004820152602490fd5b9081602091031261067d5751801515810361067d5790565b600254908115610a885760018060a01b03165f525f60205260405f205461271090818102918183041490151715610a74570490565b634e487b7160e01b5f52601160045260245ffd5b50505f9056fea2646970667358221220c5ca321d540051cbe697497a2042f85f5f5961478519ed61a252a1b7a66f972464736f6c63430008140033000000000000000000000000000000000000000000000000000000000000000100000000000000000000000000000000000000000000000000000000000000e000000000000000000000000000000000000000000000000000000000000001200000000000000000000000000000000000000000000054b40b1f852bda000000000000000000000000000000d33539af995b92b38f46a9fd301c0f80d1b977bf000000000000000000000000e5d7e81226e2ca1355f8954673ece59fe40fdbfd0000000000000000000000000000000000000000000054b40b1f852bda000000000000000000000000000000000000000000000000000000000000000000001a43726564697457656176652050726f706572747920536861726500000000000000000000000000000000000000000000000000000000000000000000000000054357525741000000000000000000000000000000000000000000000000000000",
        "nonce": "0x181",
        "chainId": "0xaa36a7"
      },
      "additionalContracts": [],
      "isFixedGasLimit": false
    },
    {
      "hash": "0x451d00ff696b1f501847b94b2cf4e60f37bcd7c1cda4ae4c58541380e3bd1b00",
      "transactionType": "CALL",
      "contractName": null,
      "contractAddress": "0xd33539af995b92b38f46a9fd301c0f80d1b977bf",
      "function": "linkContracts(uint256,address,address)",
      "arguments": [
        "1",
        "0x5602B858866BD3108d1278C20ECA54A5C0AC983e",
        "0xda69a867521a694748688655fE3BdF68Ccee9e83"
      ],
      "transaction": {
        "from": "0xe5d7e81226e2ca1355f8954673ece59fe40fdbfd",
        "to": "0xd33539af995b92b38f46a9fd301c0f80d1b977bf",
        "gas": "0x1cf20",
        "value": "0x0",
        "input": "0xf1aae8b500000000000000000000000000000000000000000000000000000000000000010000000000000000000000005602b858866bd3108d1278c20eca54a5c0ac983e000000000000000000000000da69a867521a694748688655fe3bdf68ccee9e83",
        "nonce": "0x182",
        "chainId": "0xaa36a7"
      },
      "additionalContracts": [],
      "isFixedGasLimit": false
    },
    {
      "hash": "0xbc0ad16ea47eb9cd406318dd27fe35c43c74ecd2f397ad4126bc9de3d564bfc7",
      "transactionType": "CALL",
      "contractName": null,
      "contractAddress": "0xd33539af995b92b38f46a9fd301c0f80d1b977bf",
      "function": "activateAsset(uint256)",
      "arguments": [
        "1"
      ],
      "transaction": {
        "from": "0xe5d7e81226e2ca1355f8954673ece59fe40fdbfd",
        "to": "0xd33539af995b92b38f46a9fd301c0f80d1b977bf",
        "gas": "0x141fa",
        "value": "0x0",
        "input": "0xffba205f0000000000000000000000000000000000000000000000000000000000000001",
        "nonce": "0x183",
        "chainId": "0xaa36a7"
      },
      "additionalContracts": [],
      "isFixedGasLimit": false
    },
    {
      "hash": "0x79025906f648208e186669251fd8e3cda9fd65e85f97c08368f2dc768201155a",
      "transactionType": "CALL",
      "contractName": "RWALendingPool",
      "contractAddress": "0xeb8c9b9a94c0a44777dc5fd2951204e43805103c",
      "function": "setAssetToken(uint256,address)",
      "arguments": [
        "1",
        "0xda69a867521a694748688655fE3BdF68Ccee9e83"
      ],
      "transaction": {
        "from": "0xe5d7e81226e2ca1355f8954673ece59fe40fdbfd",
        "to": "0xeb8c9b9a94c0a44777dc5fd2951204e43805103c",
        "gas": "0x11123",
        "value": "0x0",
        "input": "0x28b523e30000000000000000000000000000000000000000000000000000000000000001000000000000000000000000da69a867521a694748688655fe3bdf68ccee9e83",
        "nonce": "0x184",
        "chainId": "0xaa36a7"
      },
      "additionalContracts": [],
      "isFixedGasLimit": false
    },
    {
      "hash": "0xfd143da71a271b15a824ffaed04ebdcc9c3c26f8c335302bb7b5ad8d784fa892",
      "transactionType": "CALL",
      "contractName": "RWALendingPool",
      "contractAddress": "0xeb8c9b9a94c0a44777dc5fd2951204e43805103c",
      "function": "setAssetLogic(uint256,address)",
      "arguments": [
        "1",
        "0x5602B858866BD3108d1278C20ECA54A5C0AC983e"
      ],
      "transaction": {
        "from": "0xe5d7e81226e2ca1355f8954673ece59fe40fdbfd",
        "to": "0xeb8c9b9a94c0a44777dc5fd2951204e43805103c",
        "gas": "0x103bd",
        "value": "0x0",
        "input": "0x96fdc77100000000000000000000000000000000000000000000000000000000000000010000000000000000000000005602b858866bd3108d1278c20eca54a5c0ac983e",
        "nonce": "0x185",
        "chainId": "0xaa36a7"
      },
      "additionalContracts": [],
      "isFixedGasLimit": false
    },
    {
      "hash": "0x1b95d17d15974c4866bd172740658943d56623346787cf83f301addc877bcf34",
      "transactionType": "CALL",
      "contractName": null,
      "contractAddress": "0x63900141d541e537a7ac34ffec86e0fcb49cfbf1",
      "function": "setAssetLoanProduct(uint256,uint8)",
      "arguments": [
        "1",
        "1"
      ],
      "transaction": {
        "from": "0xe5d7e81226e2ca1355f8954673ece59fe40fdbfd",
        "to": "0x63900141d541e537a7ac34ffec86e0fcb49cfbf1",
        "gas": "0x10423",
        "value": "0x0",
        "input": "0xb6e7711500000000000000000000000000000000000000000000000000000000000000010000000000000000000000000000000000000000000000000000000000000001",
        "nonce": "0x186",
        "chainId": "0xaa36a7"
      },
      "additionalContracts": [],
      "isFixedGasLimit": false
    },
    {
      "hash": "0xcbe5a78393b61572de0a0c982031e7c3da7552c069e2ada6b964265ccec65029",
      "transactionType": "CALL",
      "contractName": "PortfolioRiskRegistry",
      "contractAddress": "0x8eaabdfb882446e22c6b3caad51688cd3f623feb",
      "function": "assignAssetSegment(uint256,bytes32)",
      "arguments": [
        "1",
        "0xd5a14eb7fcacab736257618fe07bbea3533b2d716c75954f66689f8c2c7183ef"
      ],
      "transaction": {
        "from": "0xe5d7e81226e2ca1355f8954673ece59fe40fdbfd",
        "to": "0x8eaabdfb882446e22c6b3caad51688cd3f623feb",
        "gas": "0x1020e",
        "value": "0x0",
        "input": "0x46924b040000000000000000000000000000000000000000000000000000000000000001d5a14eb7fcacab736257618fe07bbea3533b2d716c75954f66689f8c2c7183ef",
        "nonce": "0x187",
        "chainId": "0xaa36a7"
      },
      "additionalContracts": [],
      "isFixedGasLimit": false
    }
  ],
  "receipts": [
    {
      "status": "0x1",
      "cumulativeGasUsed": "0x97d05a",
      "logs": [
        {
          "address": "0xd33539af995b92b38f46a9fd301c0f80d1b977bf",
          "topics": [
            "0x633dd34c2a254e3303a95404f346347f8e94d94b507ffb6d2db4b9ea051dc1e8",
            "0x000000000000000000000000e5d7e81226e2ca1355f8954673ece59fe40fdbfd"
          ],
          "data": "0x",
          "blockHash": "0x786c88ced704fa3604102d6ab67582a328496fdd8dff0038c3d9ca943c0f9e5d",
          "blockNumber": "0x9e2e93",
          "blockTimestamp": "0x69a52658",
          "transactionHash": "0x451d00ff696b1f501847b94b2cf4e60f37bcd7c1cda4ae4c58541380e3bd1b00",
          "transactionIndex": "0x54",
          "logIndex": "0x9f",
          "removed": false
        }
      ],
      "logsBloom": "0x00000000000000000000000000000000000000000000000000000000000000000000000800000000000000000000000000000000000000000000000000000000000000000000000000000000000000000000000000000000000000000000000000000000000000000000000000000000000000000000000000000000001000000000000000000000000800000000000010000000000000000000000000080000000000000000000000000000000020000000000000000000000000000000000000200000000000000000000000000000000000000000000000000000040080000000000000000000000000000000000000000000000000000000000000000000",
      "type": "0x2",
      "transactionHash": "0x451d00ff696b1f501847b94b2cf4e60f37bcd7c1cda4ae4c58541380e3bd1b00",
      "transactionIndex": "0x54",
      "blockHash": "0x786c88ced704fa3604102d6ab67582a328496fdd8dff0038c3d9ca943c0f9e5d",
      "blockNumber": "0x9e2e93",
      "gasUsed": "0xc467",
      "effectiveGasPrice": "0xf424a",
      "from": "0xe5d7e81226e2ca1355f8954673ece59fe40fdbfd",
      "to": "0xd33539af995b92b38f46a9fd301c0f80d1b977bf",
      "contractAddress": null
    },
    {
      "status": "0x1",
      "cumulativeGasUsed": "0x988a30",
      "logs": [
        {
          "address": "0xd33539af995b92b38f46a9fd301c0f80d1b977bf",
          "topics": [
            "0x65c84ee842eafc291d1272a6e3d10f8c454c4288e63f5db3f7be2b3012f321a9",
            "0x000000000000000000000000eb8c9b9a94c0a44777dc5fd2951204e43805103c"
          ],
          "data": "0x",
          "blockHash": "0x786c88ced704fa3604102d6ab67582a328496fdd8dff0038c3d9ca943c0f9e5d",
          "blockNumber": "0x9e2e93",
          "blockTimestamp": "0x69a52658",
          "transactionHash": "0xbc0ad16ea47eb9cd406318dd27fe35c43c74ecd2f397ad4126bc9de3d564bfc7",
          "transactionIndex": "0x55",
          "logIndex": "0xa0",
          "removed": false
        }
      ],
      "logsBloom": "0x00000000800000000000000000000000000000000000000000000000000800000000000800000000000000000000000000000000000000000000000000000000000000000000000000000000000000000000001000000000000000000000000000000000000000000000000000000000000000000000000000000000000000000000000000000000000000000000000000000000000000000000000000000000000000000000000000000000000000000000000000000000000000000000000000000000000000000000000000000000000000000000000200000000040080000000000000000000001000000000000000000000008000000000000000000000",
      "type": "0x2",
      "transactionHash": "0xbc0ad16ea47eb9cd406318dd27fe35c43c74ecd2f397ad4126bc9de3d564bfc7",
      "transactionIndex": "0x55",
      "blockHash": "0x786c88ced704fa3604102d6ab67582a328496fdd8dff0038c3d9ca943c0f9e5d",
      "blockNumber": "0x9e2e93",
      "gasUsed": "0xb9d6",
      "effectiveGasPrice": "0xf424a",
      "from": "0xe5d7e81226e2ca1355f8954673ece59fe40fdbfd",
      "to": "0xd33539af995b92b38f46a9fd301c0f80d1b977bf",
      "contractAddress": null
    },
    {
      "status": "0x1",
      "cumulativeGasUsed": "0x994e97",
      "logs": [
        {
          "address": "0xd33539af995b92b38f46a9fd301c0f80d1b977bf",
          "topics": [
            "0x633dd34c2a254e3303a95404f346347f8e94d94b507ffb6d2db4b9ea051dc1e8",
            "0x000000000000000000000000eb8c9b9a94c0a44777dc5fd2951204e43805103c"
          ],
          "data": "0x",
          "blockHash": "0x786c88ced704fa3604102d6ab67582a328496fdd8dff0038c3d9ca943c0f9e5d",
          "blockNumber": "0x9e2e93",
          "blockTimestamp": "0x69a52658",
          "transactionHash": "0x19e7863b472fffb4184ddf090c9e0eab3fc6e94ae9635c08733de9510be23597",
          "transactionIndex": "0x56",
          "logIndex": "0xa1",
          "removed": false
        }
      ],
      "logsBloom": "0x00000000000000000000000000000000000000000000000000000000000800000000000800000000000000000000000000000000000000000000000000000000000000000000000000000000000000000000001000000000000000000000000000000000000000000000000000000000000000000000000000000000000000000000000000000000000000000000000010000000000000000000000000080000000000000000000000000000000020000000000000000000000000000000000000000000000000000000000000000000000000000000000200000000040080000000000000000000000000000000000000000000000000000000000000000000",
      "type": "0x2",
      "transactionHash": "0x19e7863b472fffb4184ddf090c9e0eab3fc6e94ae9635c08733de9510be23597",
      "transactionIndex": "0x56",
      "blockHash": "0x786c88ced704fa3604102d6ab67582a328496fdd8dff0038c3d9ca943c0f9e5d",
      "blockNumber": "0x9e2e93",
      "gasUsed": "0xc467",
      "effectiveGasPrice": "0xf424a",
      "from": "0xe5d7e81226e2ca1355f8954673ece59fe40fdbfd",
      "to": "0xd33539af995b92b38f46a9fd301c0f80d1b977bf",
      "contractAddress": null
    },
    {
      "status": "0x1",
      "cumulativeGasUsed": "0x9d9999",
      "logs": [
        {
          "address": "0xd33539af995b92b38f46a9fd301c0f80d1b977bf",
          "topics": [
            "0xdad99ad75033a16b370048f551c6da57e13c63c93a73343a1bfa85736cb9ee67",
            "0x0000000000000000000000000000000000000000000000000000000000000001",
            "0x000000000000000000000000e5d7e81226e2ca1355f8954673ece59fe40fdbfd"
          ],
          "data": "0x00000000000000000000000000000000000000000000000000000000000000000000000000000000000000000000000000000000000054b40b1f852bda000000",
          "blockHash": "0x786c88ced704fa3604102d6ab67582a328496fdd8dff0038c3d9ca943c0f9e5d",
          "blockNumber": "0x9e2e93",
          "blockTimestamp": "0x69a52658",
          "transactionHash": "0x43afdf88e5fcd1de6fd6e09dbb9c7b2adabd12b0b800f7b0e7cf9fa60c1a554d",
          "transactionIndex": "0x57",
          "logIndex": "0xa2",
          "removed": false
        }
      ],
      "logsBloom": "0x000000000000000000000000000000000000000000000000000000000000000000000008000000000000000000000000000000000000000000000000100400000000000000000000000000000000000000000000000400000000000000000000000000000000000000000000000000000000000000000000000000000010000000000000000000000008000000000000000000000000000000000000000000000000000000000000000000010000000000000000000000000000000000000000002000008000000000000000000000000000000000000000000000000400c0000000000000000000000000000000000000000000000000000000000000000000",
      "type": "0x2",
      "transactionHash": "0x43afdf88e5fcd1de6fd6e09dbb9c7b2adabd12b0b800f7b0e7cf9fa60c1a554d",
      "transactionIndex": "0x57",
      "blockHash": "0x786c88ced704fa3604102d6ab67582a328496fdd8dff0038c3d9ca943c0f9e5d",
      "blockNumber": "0x9e2e93",
      "gasUsed": "0x44b02",
      "effectiveGasPrice": "0xf424a",
      "from": "0xe5d7e81226e2ca1355f8954673ece59fe40fdbfd",
      "to": "0xd33539af995b92b38f46a9fd301c0f80d1b977bf",
      "contractAddress": null
    },
    {
      "status": "0x1",
      "cumulativeGasUsed": "0xaf7842",
      "logs": [],
      "logsBloom": "0x00000000000000000000000000000000000000000000000000000000000000000000000000000000000000000000000000000000000000000000000000000000000000000000000000000000000000000000000000000000000000000000000000000000000000000000000000000000000000000000000000000000000000000000000000000000000000000000000000000000000000000000000000000000000000000000000000000000000000000000000000000000000000000000000000000000000000000000000000000000000000000000000000000000000000000000000000000000000000000000000000000000000000000000000000000000",
      "type": "0x2",
      "transactionHash": "0x79025906f648208e186669251fd8e3cda9fd65e85f97c08368f2dc768201155a",
      "transactionIndex": "0x5b",
      "blockHash": "0x786c88ced704fa3604102d6ab67582a328496fdd8dff0038c3d9ca943c0f9e5d",
      "blockNumber": "0x9e2e93",
      "gasUsed": "0xeadc3",
      "effectiveGasPrice": "0xf424a",
      "from": "0xe5d7e81226e2ca1355f8954673ece59fe40fdbfd",
      "to": null,
      "contractAddress": "0x5602b858866bd3108d1278c20eca54a5c0ac983e"
    },
    {
      "status": "0x1",
      "cumulativeGasUsed": "0xb243db",
      "logs": [
        {
          "address": "0x5602b858866bd3108d1278c20eca54a5c0ac983e",
          "topics": [
            "0xf9942075be21ecf4573e3db2ac4f77f2d4f78f089a1b02b79062dcede6b95627"
          ],
          "data": "0x00000000000000000000000000000000000000000000006c6b935b8bbd4000000000000000000000000000000000000000000000000000000000000000278d000000000000000000000000000000000000000000000000000000000069a526280000000000000000000000000000000000000000000000000000000000000005000000000000000000000000000000000000000000000000000000006b8659a80000000000000000000000000000000000000000000000000000000000015180",
          "blockHash": "0x786c88ced704fa3604102d6ab67582a328496fdd8dff0038c3d9ca943c0f9e5d",
          "blockNumber": "0x9e2e93",
          "blockTimestamp": "0x69a52658",
          "transactionHash": "0xe42230c74083a7c0d9003f9816e3350fcd27d774e800730993fa928aaae2cbb9",
          "transactionIndex": "0x5c",
          "logIndex": "0xa7",
          "removed": false
        }
      ],
      "logsBloom": "0x00000000000000000000000000000000000000000000000000000000000000000000008000020000000000000000000000000000000000000000000000000000000000000000000000000000000000000000000000000000000000000000000000000000000000000000000000000000000000000000000000000000000000000000000000000000000000000000000000000000000000000000000000000000000000000000000000000000000000000000000000100000000000000000001800000000000000000000000000000000000000000000000000000000000000000000000000000000000000000000000000000000000000080000000000000000",
      "type": "0x2",
      "transactionHash": "0xe42230c74083a7c0d9003f9816e3350fcd27d774e800730993fa928aaae2cbb9",
      "transactionIndex": "0x5c",
      "blockHash": "0x786c88ced704fa3604102d6ab67582a328496fdd8dff0038c3d9ca943c0f9e5d",
      "blockNumber": "0x9e2e93",
      "gasUsed": "0x2cb99",
      "effectiveGasPrice": "0xf424a",
      "from": "0xe5d7e81226e2ca1355f8954673ece59fe40fdbfd",
      "to": "0x5602b858866bd3108d1278c20eca54a5c0ac983e",
      "contractAddress": null
    },
    {
      "status": "0x1",
      "cumulativeGasUsed": "0xbe169a",
      "logs": [
        {
          "address": "0xda69a867521a694748688655fe3bdf68ccee9e83",
          "topics": [
            "0xddf252ad1be2c89b69c2b068fc378daa952ba7f163c4a11628f55a4df523b3ef",
            "0x0000000000000000000000000000000000000000000000000000000000000000",
            "0x000000000000000000000000e5d7e81226e2ca1355f8954673ece59fe40fdbfd"
          ],
          "data": "0x0000000000000000000000000000000000000000000054b40b1f852bda000000",
          "blockHash": "0x786c88ced704fa3604102d6ab67582a328496fdd8dff0038c3d9ca943c0f9e5d",
          "blockNumber": "0x9e2e93",
          "blockTimestamp": "0x69a52658",
          "transactionHash": "0xcbe5a78393b61572de0a0c982031e7c3da7552c069e2ada6b964265ccec65029",
          "transactionIndex": "0x5d",
          "logIndex": "0xa8",
          "removed": false
        }
      ],
      "logsBloom": "0x00000000000000000000000000000000000000000000000000000000000000000000000000000000000000000000000000000000000000000000000000000000000000000000000000000008000000000000000000000000000000000000000000000000020000000000000000000800000000000000000040000010001000000000000000000000000800000000000000000000000000000000000000000000000000000000000000000000000000000000000000000000000000000000010000200002000000000000000000000000020000000000000000000000000020000000000000000000000000000000000000000000000000000000000000000000",
      "type": "0x2",
      "transactionHash": "0xcbe5a78393b61572de0a0c982031e7c3da7552c069e2ada6b964265ccec65029",
      "transactionIndex": "0x5d",
      "blockHash": "0x786c88ced704fa3604102d6ab67582a328496fdd8dff0038c3d9ca943c0f9e5d",
      "blockNumber": "0x9e2e93",
      "gasUsed": "0xbd2bf",
      "effectiveGasPrice": "0xf424a",
      "from": "0xe5d7e81226e2ca1355f8954673ece59fe40fdbfd",
      "to": null,
      "contractAddress": "0xda69a867521a694748688655fe3bdf68ccee9e83"
    },
    {
      "status": "0x1",
      "cumulativeGasUsed": "0xbf5345",
      "logs": [
        {
          "address": "0xd33539af995b92b38f46a9fd301c0f80d1b977bf",
          "topics": [
            "0x8093a994c1c1720c2d8a966b252136094319fa84ecc22bafc8b2d4991732a4eb",
            "0x0000000000000000000000000000000000000000000000000000000000000001"
          ],
          "data": "0x0000000000000000000000005602b858866bd3108d1278c20eca54a5c0ac983e000000000000000000000000da69a867521a694748688655fe3bdf68ccee9e83",
          "blockHash": "0x786c88ced704fa3604102d6ab67582a328496fdd8dff0038c3d9ca943c0f9e5d",
          "blockNumber": "0x9e2e93",
          "blockTimestamp": "0x69a52658",
          "transactionHash": "0x48fb437fca1aa151387fc82a3e0d137a188c9b02ca307036969130b055b475d8",
          "transactionIndex": "0x5e",
          "logIndex": "0xa9",
          "removed": false
        }
      ],
      "logsBloom": "0x000000000000000000000000000000000000000000000000000000000000000000000008000000000000000000000000000000000000000000000000000400000000000000000000000000000000000000800000000400000000000000000000000000000000008000000000000008000000000000000000000000000000000000000000000000000000000000000000000000000000000000000000000000000000000000000000000000000000000000000000000000000000000000000000000000000000000000000000000000000000000000000000000000000400c0000000000000000000000000000000000000000000000000000000000000000000",
      "type": "0x2",
      "transactionHash": "0x48fb437fca1aa151387fc82a3e0d137a188c9b02ca307036969130b055b475d8",
      "transactionIndex": "0x5e",
      "blockHash": "0x786c88ced704fa3604102d6ab67582a328496fdd8dff0038c3d9ca943c0f9e5d",
      "blockNumber": "0x9e2e93",
      "gasUsed": "0x13cab",
      "effectiveGasPrice": "0xf424a",
      "from": "0xe5d7e81226e2ca1355f8954673ece59fe40fdbfd",
      "to": "0xd33539af995b92b38f46a9fd301c0f80d1b977bf",
      "contractAddress": null
    },
    {
      "status": "0x1",
      "cumulativeGasUsed": "0xc03c61",
      "logs": [
        {
          "address": "0xd33539af995b92b38f46a9fd301c0f80d1b977bf",
          "topics": [
            "0x0790c8d81a0cc3bfed1b6e0f29e489b9c93cffb85cf2164ecc769a7946437056",
            "0x0000000000000000000000000000000000000000000000000000000000000001"
          ],
          "data": "0x0000000000000000000000000000000000000000000000000000000069a52658",
          "blockHash": "0x786c88ced704fa3604102d6ab67582a328496fdd8dff0038c3d9ca943c0f9e5d",
          "blockNumber": "0x9e2e93",
          "blockTimestamp": "0x69a52658",
          "transactionHash": "0xea26298d4c7d4a23c4a448c426a1f63343d8f7e989b744b51ae470712c9e3a28",
          "transactionIndex": "0x5f",
          "logIndex": "0xaa",
          "removed": false
        }
      ],
      "logsBloom": "0x000000000000000000000000000000000000000000000000000000000000000000000008000000000000000000000000000000000000000000000000000400000000000000000000000000000000000000000000000400000000000000400000000000000000000000000000000000000000000000000000000000000000000000000000000000000000000000000000000000000000000000000000000000000000000000000000000000000000000000000000000000000000000000000000000000000040000000000000000000000000000000000000000000000400c0000000000000000000000000000000040000000000000000000000000000000000",
      "type": "0x2",
      "transactionHash": "0xea26298d4c7d4a23c4a448c426a1f63343d8f7e989b744b51ae470712c9e3a28",
      "transactionIndex": "0x5f",
      "blockHash": "0x786c88ced704fa3604102d6ab67582a328496fdd8dff0038c3d9ca943c0f9e5d",
      "blockNumber": "0x9e2e93",
      "gasUsed": "0xe91c",
      "effectiveGasPrice": "0xf424a",
      "from": "0xe5d7e81226e2ca1355f8954673ece59fe40fdbfd",
      "to": "0xd33539af995b92b38f46a9fd301c0f80d1b977bf",
      "contractAddress": null
    },
    {
      "status": "0x1",
      "cumulativeGasUsed": "0xc0f724",
      "logs": [
        {
          "address": "0xeb8c9b9a94c0a44777dc5fd2951204e43805103c",
          "topics": [
            "0xc4b5eda34df48549ecc924f6209d5f72700136b26c01f1a8f2a6f8ac7198898d",
            "0x0000000000000000000000000000000000000000000000000000000000000001"
          ],
          "data": "0x000000000000000000000000da69a867521a694748688655fe3bdf68ccee9e83",
          "blockHash": "0x786c88ced704fa3604102d6ab67582a328496fdd8dff0038c3d9ca943c0f9e5d",
          "blockNumber": "0x9e2e93",
          "blockTimestamp": "0x69a52658",
          "transactionHash": "0x3fa79208f77d4c2b404ee9f865283a8e352ecdfcaa2e29638d8bb8026a0d31ea",
          "transactionIndex": "0x60",
          "logIndex": "0xab",
          "removed": false
        }
      ],
      "logsBloom": "0x00000000000000000000000000000000000000000000000000000000000000000000000000000000000000000000000000000000000000000000000000040000000002000000000000000000000000000000000000040000000000000000000000000000000000000000000000000000000000000000100000100000000000000000000000000000000000000000000000200000000000000000000000000000020000000000000000000000000000000000000000000000000000000000000000000000000000000000000000001000000000000000000000000000000040000000000000000000000000000000000000000000000000000000000000000000",
      "type": "0x2",
      "transactionHash": "0x3fa79208f77d4c2b404ee9f865283a8e352ecdfcaa2e29638d8bb8026a0d31ea",
      "transactionIndex": "0x60",
      "blockHash": "0x786c88ced704fa3604102d6ab67582a328496fdd8dff0038c3d9ca943c0f9e5d",
      "blockNumber": "0x9e2e93",
      "gasUsed": "0xbac3",
      "effectiveGasPrice": "0xf424a",
      "from": "0xe5d7e81226e2ca1355f8954673ece59fe40fdbfd",
      "to": "0xeb8c9b9a94c0a44777dc5fd2951204e43805103c",
      "contractAddress": null
    },
    {
      "status": "0x1",
      "cumulativeGasUsed": "0xc1b331",
      "logs": [
        {
          "address": "0xeb8c9b9a94c0a44777dc5fd2951204e43805103c",
          "topics": [
            "0x5574600072d1387acaf7767838cc3430dd5050669cec8a03496369899660685a",
            "0x0000000000000000000000000000000000000000000000000000000000000001"
          ],
          "data": "0x0000000000000000000000005602b858866bd3108d1278c20eca54a5c0ac983e",
          "blockHash": "0x786c88ced704fa3604102d6ab67582a328496fdd8dff0038c3d9ca943c0f9e5d",
          "blockNumber": "0x9e2e93",
          "blockTimestamp": "0x69a52658",
          "transactionHash": "0xfd143da71a271b15a824ffaed04ebdcc9c3c26f8c335302bb7b5ad8d784fa892",
          "transactionIndex": "0x61",
          "logIndex": "0xac",
          "removed": false
        }
      ],
      "logsBloom": "0x00000000000000000000000000000000000000000000000000000000000000000000000000000000000000000000000000000000000000000000000000040000000002000000000008000000000000000000000000040000000000000000000000001000001000000000000000000000000000000000100000000000000000000000000000000000000000000000000000000000000000000000000000000000000000000000000000000000000000000000000000000000000000000000000000000000000000000000000000001000000000000000000000000000000040000000000000000000000000000000000000000000000000000000000000000000",
      "type": "0x2",
      "transactionHash": "0xfd143da71a271b15a824ffaed04ebdcc9c3c26f8c335302bb7b5ad8d784fa892",
      "transactionIndex": "0x61",
      "blockHash": "0x786c88ced704fa3604102d6ab67582a328496fdd8dff0038c3d9ca943c0f9e5d",
      "blockNumber": "0x9e2e93",
      "gasUsed": "0xbc0d",
      "effectiveGasPrice": "0xf424a",
      "from": "0xe5d7e81226e2ca1355f8954673ece59fe40fdbfd",
      "to": "0xeb8c9b9a94c0a44777dc5fd2951204e43805103c",
      "contractAddress": null
    },
    {
      "status": "0x1",
      "cumulativeGasUsed": "0xc26f87",
      "logs": [
        {
          "address": "0x63900141d541e537a7ac34ffec86e0fcb49cfbf1",
          "topics": [
            "0x506579316970d5f1e98d32aa21d184faa25ca09575891c82b06637cf644a879d",
            "0x0000000000000000000000000000000000000000000000000000000000000001",
            "0x0000000000000000000000000000000000000000000000000000000000000001"
          ],
          "data": "0x",
          "blockHash": "0x786c88ced704fa3604102d6ab67582a328496fdd8dff0038c3d9ca943c0f9e5d",
          "blockNumber": "0x9e2e93",
          "blockTimestamp": "0x69a52658",
          "transactionHash": "0x25535f93b3d7751c73f09ae8104b5240f497efb61312d59f98ffa434029beb18",
          "transactionIndex": "0x62",
          "logIndex": "0xad",
          "removed": false
        }
      ],
      "logsBloom": "0x00000000000000000000000000000000000000000000000000000000000000000000000000000000000000000000000000000008000000000000000000040000000000000000000000000000000000000000000000040000000000000000000000000000000000000080000000000000000000000000000000000000000000000000000000000000000000000000000000000000000000000000000000000000000000000000000000000000000000000000004000000000000000000000000000000000000000000000000000000002000000000000000002000000000040000000000000000000000000000000000000000000001000000000000000000000",
      "type": "0x2",
      "transactionHash": "0x25535f93b3d7751c73f09ae8104b5240f497efb61312d59f98ffa434029beb18",
      "transactionIndex": "0x62",
      "blockHash": "0x786c88ced704fa3604102d6ab67582a328496fdd8dff0038c3d9ca943c0f9e5d",
      "blockNumber": "0x9e2e93",
      "gasUsed": "0xbc56",
      "effectiveGasPrice": "0xf424a",
      "from": "0xe5d7e81226e2ca1355f8954673ece59fe40fdbfd",
      "to": "0x63900141d541e537a7ac34ffec86e0fcb49cfbf1",
      "contractAddress": null
    },
    {
      "status": "0x1",
      "cumulativeGasUsed": "0xc32a5b",
      "logs": [
        {
          "address": "0x8eaabdfb882446e22c6b3caad51688cd3f623feb",
          "topics": [
            "0xe113768c01ead819d94f5a12ba85e5fd842b92f9859582b998c3effcadfb3143",
            "0x0000000000000000000000000000000000000000000000000000000000000001",
            "0xd5a14eb7fcacab736257618fe07bbea3533b2d716c75954f66689f8c2c7183ef"
          ],
          "data": "0x",
          "blockHash": "0x786c88ced704fa3604102d6ab67582a328496fdd8dff0038c3d9ca943c0f9e5d",
          "blockNumber": "0x9e2e93",
          "blockTimestamp": "0x69a52658",
          "transactionHash": "0x1b95d17d15974c4866bd172740658943d56623346787cf83f301addc877bcf34",
          "transactionIndex": "0x63",
          "logIndex": "0xae",
          "removed": false
        }
      ],
      "logsBloom": "0x00000000000000000000000000000000000000000000400000000000000000000000000000000000000040000000000000000000000000000000040000040000000000000000400000000000000000000000000000040000000000000000000000000000000000000000000000000000000000000000000000000000000000000000000000000000000000000000000000000000000000000000000000000100000000000000000000000000000000000000000000000000000000000000000000000000000000000000000000000000000000000000000000000000000040000000000000000080000000010000001000000000000002000000000000000000",
      "type": "0x2",
      "transactionHash": "0x1b95d17d15974c4866bd172740658943d56623346787cf83f301addc877bcf34",
      "transactionIndex": "0x63",
      "blockHash": "0x786c88ced704fa3604102d6ab67582a328496fdd8dff0038c3d9ca943c0f9e5d",
      "blockNumber": "0x9e2e93",
      "gasUsed": "0xbad4",
      "effectiveGasPrice": "0xf424a",
      "from": "0xe5d7e81226e2ca1355f8954673ece59fe40fdbfd",
      "to": "0x8eaabdfb882446e22c6b3caad51688cd3f623feb",
      "contractAddress": null
    }
  ],
  "libraries": [],
  "pending": [],
  "returns": {},
  "timestamp": 1772430938152,
  "chain": 11155111,
  "commit": "02cd88f"
}